:020000040000FA
:1000000040A4FF1F95020000CD020000CF020000B7
:10001000D1020000D3020000D50200000000000061
:10002000000000000000000000000000D7020000F7
:10003000D902000000000000DB0200003D4C00007F
:10004000293400003D3400005134000065340000C4
:10005000793400008D340000A1340000B534000074
:10006000C9340000DD340000F13400000535000023
:10007000193500002D3500004135000055350000D0
:10008000693500007D35000091350000A535000080
:10009000B9350000CD350000E1350000F535000030
:1000A000093600001D3600003136000045360000DC
:1000B000593600006D36000081360000953600008C
:1000C000A9360000C1360000D9360000F136000024
:1000D0000937000021370000393700005137000090
:1000E000693700008137000099370000B137000000
:1000F000C9370000E1370000F9370000113800006F
:1001000029380000413800005938000071380000DB
:1001100089380000A1380000B9380000D13800004B
:10012000E9380000013900001939000031390000B8
:100130004939000061390000793900009139000027
:10014000A9390000C1390000D9390000F139000097
:10015000093A0000213A0000393A0000513A000003
:10016000693A0000813A0000993A0000B13A000073
:10017000C93A0000E13A0000F93A0000113B0000E2
:10018000293B0000413B0000593B0000713B00004F
:10019000893B0000A13B0000B93B0000D13B0000BF
:1001A000E93B0000013C0000193C0000313C00002C
:1001B000493C0000613C0000793C0000913C00009B
:1001C000A93C0000C13C0000D93C0000F13C00000B
:1001D000093D0000213D0000393D0000513D000077
:1001E000693D0000813D0000993D0000B13D0000E7
:1001F000C93D0000E13D0000F93D0000113E000056
:10020000293E0000413E0000593E0000713E0000C2
:10021000893E0000A13E0000B93E0000D13E000032
:10022000E93E0000013F0000193F0000313F00009F
:10023000493F0000613F0000793F0000913F00000E
:10024000DF020000DF020000DF020000DF0200002A
:10025000DF020000DF020000DF020000DF0200001A
:10026000DF020000DF020000DF020000DF0200000A
:10027000DF020000DF020000DF020000DF020000FA
:10028000DFF80CD000F046FA00480047395E000065
:1002900040A4FF1F12484FF01F01016011484FF0AA
:1002A0007701016010484FF0770101600F484FF46B
:1002B000885101600B484FF0760101600A484FF009
:1002C000760101600A4880470A480047FEE7FEE7DA
:1002D000FEE7FEE7FEE7FEE7FEE7FEE7FEE7FEE7F6
:1002E00010080540040805400C08054000080540BA
:1002F000FD4D0000810200002DE9F05F0546002061
:1003000092469B4688460646814640241BE0284686
:1003100041464746224600F059F953465A46C01A0C
:10032000914110D311461846224600F040F92D1A8B
:1003300067EB01084F4622460120002100F037F903
:1003400017EB00094E41201EA4F10104DFDC4846F2
:1003500031462A464346BDE8F09F40EA01039B0729
:1003600003D009E008C9121F08C0042AFAD203E02A
:1003700011F8013B00F8013B521EF9D270470EB54F
:1003800040F2334102910021CDE900110A460B46AB
:1003900000F072F903B000BD0EB540F23342029294
:1003A0000022CDE90022134600F066F903B000BD3B
:1003B00001F0004330B421F0004150EA010206D0C0
:1003C0000A0DA2F56072C1F31301002A02DC30BCF1
:1003D00000207047440F44EAC104C100E01830BC5B
:1003E00000EBC25000F002B90021C4F2212101202B
:1003F0000860704780B502F073FF05F09BFC80BD7C
:10040000BFFFDFFFFFFEFFFFFFFFFFFFFFFFFFFF5D
:10041000FFFFFFFFFFFFFFFFFFFFFFFFFFFFFFFFEC
:10042000F0B480EA0102D40F4200B2EB410F02D2D5
:100430000246084611464A0042D0C30DDDB2C1F360
:10044000C752AD1A202D35DAC1F3160141F400026E
:1004500004B15242C5F1200602FA06F12A411044C5
:10046000B3EBD05F23D0C4B1012DA0EBC35009DCA6
:10047000F0BC4FF0004202EAC352DBB200F50000CC
:1004800000F0BDB8400000F1807000EBC350A0F157
:10049000807040EAD170490009E0490841EAC07122
:1004A000A0EBC35000F50000400800EBC350F0BCC7
:1004B00000F09CB86142012202EB4101001BF6E70B
:1004C000F0BC704781F00041AAE780F00040A7E748
:1004D0002DE9F04D81EA030404F0004B21F00045C2
:1004E00014464FF0000A23F0004150EA050220D0E4
:1004F00054EA01021DD0C5F30A570246C5F313039F
:10050000C1F31300C1F30A5640F4801543F480137D
:10051000A7EB0608101BD64608F2FD3873EB050062
:1005200002D308F1010801E092185B41B8F1000F15
:1005300003DA00200146BDE8F08D00204FF4801161
:10054000064684460EE0171B73EB050705D3121B06
:1005500063EB050306434CEA010C49084FEA3000FF
:1005600092185B4150EA0107EDD152EA030012D024
:1005700082EA040083EA0501084305D0101BAB4161
:1005800006D20122002306E000224FF0004302E0E1
:100590006FF0010253101AEB06004CEB085110EB00
:1005A0000A0041EB0B01BDE8F04D00F056B8202ADF
:1005B00004DB203A00FA02F1002070479140C2F1BA
:1005C000200320FA03F3194390407047202A04DBEC
:1005D000203A21FA02F00021704721FA02F3D040BC
:1005E000C2F1200291400843194670470029A8BF74
:1005F0007047401C490008BF20F00100704710B44C
:10060000B0FA80FC00FA0CF050EA010404BF10BC00
:10061000704749B1CCF1200421FA04F411FA0CF12D
:1006200018BF012121430843A3EB0C01CB1D4FEA66
:1006300000614FEA102042BF002010BC704700EB61
:10064000C35010440029A4BF10BC7047401C49008F
:1006500008BF20F0010010BC704710B5141E73F1E4
:10066000000408DA401C41F1000192185B411A4372
:1006700001D120F0010010BD2DE9F04D92469B46BE
:1006800011B1B1FA81F202E0B0FA80F22032904664
:10069000FFF78DFF04460F4640EA0A0041EA0B01CE
:1006A00053465A46084313D0114653EA010019D065
:1006B000C8F140025046FFF789FF05460E465046F6
:1006C00059464246FFF773FF084305D0012004E076
:1006D00020463946BDE8F08D0020054346EAE07625
:1006E0002C4337430A986305E40AA0EB0800002274
:1006F000FD0A44EA47540A3002D500200146E9E7E2
:10070000010510196941DDE9084500196941BDE895
:10071000F04DA2E71CB50948009009480190054634
:10072000009C06E0E06840F0010394E80700984769
:100730001034AC42F6D3FFF7A7FD000008610000BB
:100740002861000080B582B00190ADF80210FFE78B
:10075000019840F60401C4F2010188420ED3FFE77C
:10076000019840F66C01C4F20101884206D8FFE707
:100770009DF80400800708B9FFE707E045F67260BE
:10078000C0F200008F2100F045FEFFE7FFE701986F
:100790000068BDF8021061F308000199086002B01A
:1007A00080BD000080B582B001F030FE01F048FE4F
:1007B0000190019802B080BD80B58CB005200390F7
:1007C00003210122059202F097F90DF12B0004900C
:1007D00000F0E6FC08A8079000F01CFB47F27770D9
:1007E000C0F2777042F21021C0F2110100F04CFB10
:1007F00003990498002206928DF82D2030238DF85D
:100800002C308DF82B208DF82F1000F0EFFB059B7E
:100810000699079809919DF8242002F0E0028DF8CE
:100820002420BDF8252002F47E423132ADF8252087
:100830009DF8272063F31F128DF827209DF82720AD
:1008400002F0F00201328DF82720BDF8252063F375
:100850001F32ADF825208DF820109DF8241001F0EE
:100860007F018DF8241000F0F9F8FFE7202000F058
:1008700055F8012801D0FFE7F8E704200022019293
:10088000114603F0A1FC0B2001220292114603F055
:100890009BFC502001F0B8FF4FF4404002F05EFC9A
:1008A00003F012FC052000F0FBFA029801F062FF51
:1008B000019801F05FFF029801F026FF0CB080BDA7
:1008C00080B548F23041C1F6FF71086840F400601D
:1008D0000860FFE70120022102F040FB08B9FFE7B2
:1008E000F8E7022001F0F6FF80BD000080B504F0BB
:1008F0009FF980BD80B5FFF75FFF4FF47A7004F079
:10090000B1F980BD80B5C72003F08CFB80BD00002D
:1009100080B5C72003F048FB80BD000080B582B0E1
:100920008DF80700FFE79DF8070040B1FFE79DF84D
:10093000070040F06900692801D1FFE708E045F6AB
:10094000AD60C0F2000040F28B5100F063FDFFE7A4
:10095000FFE744F23C00C4F2050000789DF8071060
:100960000840C0B2002818BF012002B080BD0000BE
:1009700080B582B08DF8070000200090FFE79DF859
:10098000070028B1FFE79DF80700012801D1FFE724
:1009900008E045F6AD60C0F2000040F2E54100F02D
:1009A00039FDFFE7FFE7FFE744F2FE30C4F2050040
:1009B0000088C00708B1FFE708E045F6AD60C0F267
:1009C000000040F2E64100F025FDFFE7FFE79DF85B
:1009D0000700B0B9FFE744F22600C4F20500007832
:1009E00000F00700052804D1FFE76FF00500009034
:1009F00006E044F22A01C4F2050101200870FFE775
:100A000029E044F20010C4F205000068C1B20020E1
:100A1000B0EBD11F07D1FFE708204FF4805100F061
:100A20004BFA009006E001204FF4805100F044FAA8
:100A30000090FFE7009868B9FFE744F22A01C4F28A
:100A400005010020087020204FF4805100F034FA96
:100A50000090FFE7FFE7009802B080BD80B586B048
:100A60000590059820B9FFE76FF002000490CDE1F2
:100A7000FFE7059801790020B0EBD11F07D0FFE711
:100A8000059801790120B0EBD11F01D1FFE708E003
:100A900045F6AD60C0F200004FF4976100F0BAFC7B
:100AA000FFE7FFE7FFE70598007900F01F0001303E
:100AB000182808D8FFE70598007900F01F000130DA
:100AC00008B1FFE708E045F6AD60C0F2000040F273
:100AD000B94100F09FFCFFE7FFE7FFE70598B0F89A
:100AE00005006FF35F200130B0F5F07F0AD8FFE713
:100AF0000598B0F805006FF35F200130142801D38A
:100B0000FFE708E045F6AD60C0F2000040F2BA41F0
:100B100000F080FCFFE7FFE7FFE70598C1790120BF
:100B200000EB1110102809D8FFE70598C1790120C2
:100B300000EB1110022801D3FFE708E045F6AD6095
:100B4000C0F2000040F2BB4100F064FCFFE7FFE7A9
:100B5000059801790020B0EBD11F06D1FFE741F2E3
:100B60000020C0F27A00019006E048F20000C1F6D1
:100B7000FF7000680190FFE701980599097901F07D
:100B80001F010131B0FBF1F0039003980599B1F812
:100B900005106FF35F21013148430290FFE703988E
:100BA00047F64001C0F27D11884209D8FFE703985B
:100BB00044F24021C0F20F01884201D3FFE708E070
:100BC00045F6AD60C0F200004FF4986100F022FCE1
:100BD000FFE7FFE7FFE7029843F60001C1F69C41FB
:100BE000884209D8FFE7029841F60041C0F64E61FD
:100BF000884201D3FFE708E045F6AD60C0F200008F
:100C000040F2C14100F006FCFFE7FFE7FFE7029872
:100C10000599CA79012101EB1211B0FBF1F04CF2F8
:100C20000021C0F6EB31884210D8FFE70298059901
:100C3000CA79012101EB1211B0FBF1F04EF2C011A3
:100C4000C0F2E401884201D3FFE708E045F6AD6059
:100C5000C0F2000040F2C24100F0DCFBFFE7FFE71A
:100C6000FFE70598C07900F00F000130102809D87F
:100C7000FFE70598C07900F00F000130022801D38A
:100C8000FFE708E045F6AD60C0F2000040F2C34166
:100C900000F0C0FBFFE7FFE7FFE70598B0F805109D
:100CA000012000EB113010280AD8FFE70598B0F8B2
:100CB0000510012000EB1130022801D3FFE708E006
:100CC00045F6AD60C0F2000040F2C44100F0A2FB66
:100CD000FFE7FFE7FFE702980599B1F8052001213A
:100CE00001EB1231B0FBF1F04CF20021C0F6EB3118
:100CF000884211D8FFE702980599B1F80520012133
:100D000001EB1231B0FBF1F04EF2C011C0F2E40180
:100D1000884201D3FFE708E045F6AD60C0F200006D
:100D200040F2C54100F076FBFFE7FFE7FFE70298DE
:100D30000599C97901F00F010131B0FBF1F04CF2D6
:100D40000021C0F6EB31884210D8FFE702980599E0
:100D5000C97901F00F010131B0FBF1F04EF2C01181
:100D6000C0F2E401884201D3FFE708E045F6AD6038
:100D7000C0F2000040F2C64100F04CFBFFE7FFE785
:100D8000FFE705980078012804D0FFE70598007870
:100D900008B9FFE708E045F6AD60C0F200004FF487
:100DA000996100F037FBFFE7FFE7FFE744F2FE3011
:100DB000C4F205000088C00708B1FFE708E045F667
:100DC000AD60C0F2000040F2C94100F023FBFFE734
:100DD000FFE744F20011C4F205010868059A127990
:100DE000D20962F3C710086005984068086005984A
:100DF000007828B9FFE70120FFF7BAFD049004E06E
:100E00000020FFF7B5FD0490FFE7FFE7049806B068
:100E100080BD000082B0019000200090019820B9B0
:100E2000FFE76FF0020000902AE00199002048607F
:100E30000199087900F07F0008710199087900F0A4
:100E4000E00008710199B1F8050000F47E4013300C
:100E5000A1F80500019AD179012060F31F11D17129
:100E6000019AD17901F0F0010131D171019AB2F802
:100E7000051060F31F31A2F8051001990870FFE713
:100E8000009802B07047000080B582B001900091D8
:100E90000198009903F020FA03F018FF02B080BD1A
:100EA00080B582B08DF807009DF8070003F060FC64
:100EB00003F00CFF02B080BD80B584B08DF80F0048
:100EC0000291002001906FF007000090FFE7019869
:100ED000029988420ED8FFE79DF80F00FFF71EFD2C
:100EE000012803D1FFE70020009003E001980130C2
:100EF0000190ECE7009804B080BD000080B582B09E
:100F00008DF8070000200090FFE79DF8070028B14A
:100F1000FFE79DF80700012801D1FFE708E045F64B
:100F2000AD60C0F200004FF4677100F073FAFFE7A4
:100F3000FFE7FFE744F2FE30C4F205000088C00777
:100F400008B1FFE708E045F6AD60C0F2000040F2EE
:100F50009D3100F05FFAFFE7FFE79DF80700A8BBAF
:100F6000FFE744F22600C4F20500007800F0070015
:100F7000032804D1FFE76FF00500009025E044F25C
:100F80000010C4F205000068C1B20020B0EBD11F10
:100F900013D1FFE744F22A00C4F20500007820B91B
:100FA000FFE76FF00500009006E044F23201C4F262
:100FB000050101200870FFE706E044F23201C4F2A7
:100FC000050101200870FFE7FFE70CE044F2320161
:100FD000C4F205010020087008204FF48051FFF78B
:100FE0006BFF0090FFE7009802B080BD80B582B033
:100FF0000190019820B9FFE76FF002000090CBE06C
:10100000FFE701980078012804D0FFE701980078F5
:1010100008B9FFE708E045F6AD60C0F200004FF404
:101020005F7100F0F7F9FFE7FFE7FFE7019840780D
:1010300078B1FFE70198407810280AD0FFE70198BF
:101040004078202805D0FFE701984078302801D16A
:10105000FFE708E045F6AD60C0F2000040F27D31E8
:1010600000F0D8F9FFE7FFE7FFE70198807828B1A3
:10107000FFE701988078402801D1FFE708E045F6B6
:10108000AD60C0F2000040F27E3100F0C3F9FFE72E
:10109000FFE7FFE70198C078802804D0FFE70198B8
:1010A000C07808B9FFE708E045F6AD60C0F200007F
:1010B00040F27F3100F0AEF9FFE7FFE7FFE701986C
:1010C0000079012828D0FFE701980079022823D071
:1010D000FFE70198007903281ED0FFE70198007907
:1010E000042819D0FFE701980079052814D0FFE7FC
:1010F0000198007906280FD0FFE7019800790728AA
:101100000AD0FFE701980079082805D0FFE7019889
:101110000079092801D1FFE708E045F6AD60C0F28B
:1011200000004FF4607100F075F9FFE7FFE7FFE79B
:1011300044F2FE30C4F205000088C00708B1FFE7A2
:1011400008E045F6AD60C0F2000040F2813100F0E9
:1011500061F9FFE7FFE70198007944F2A201C4F2C8
:1011600005010870019842788178C07810430843DF
:1011700044F21041C4F2050108700198007828B9C2
:10118000FFE70120FFF7BAFE009004E00020FFF720
:10119000B5FE0090FFE7FFE7009802B080BD0000B9
:1011A00082B0019000200090019820B9FFE76FF015
:1011B000020000900EE001990120087001990020C2
:1011C00088700199487001998020C87001990520A4
:1011D0000871FFE7009802B07047000080B594B036
:1011E00013901291012007904FF0FF300690FFE717
:1011F00013984DF20001C4F20101884218D0FFE7B4
:1012000013984DF20041C4F20101884210D0FFE76B
:10121000139841F20001C4F20201884208D0FFE7AE
:10122000139841F20041C4F20201884201D1FFE764
:1012300008E046F2CA00C0F2000040F2A51100F03A
:10124000E9F8FFE7FFE712980068109012984068ED
:1012500011901098002800F0DA80FFE7119800281C
:1012600000F0D580FFE7109811998900B0FBF1F0EC
:1012700001380B900B98FF2878D8FFE70B9812994C
:101280008860109A11988100B2FBF1F000FB1120E8
:101290000A900A9828B9FFE7129900200861069081
:1012A00063E00B98411C4FF0000343F10000119ADA
:1012B000A1FB021C00FB02C0800040EA9170890083
:1012C0000E910F90DDF838E00F98000240EA1E61A1
:1012D000109A5FEA530C4FEA320010EB0E2041EBFC
:1012E0000C01FFF709F88038099009987F2838D851
:1012F000FFE709981299C8600E990F98000240EA1A
:10130000116009020E910F901098099980314FF0E9
:101310000002059242F10002A0FB011300FB023023
:101320000C910D900C980D99FFF736F803900491ED
:101330000E980F99FFF730F8024603980B46049970
:10134000FFF7C6F8FFF734F80021CBF68071FFF7FE
:1013500067F80146059808910899129A116106905C
:1013600002E000200790FFE7FFE7FFE7079800286B
:101370004CD1FFE7109800EB8000400011998900E4
:10138000B0FBF1F005304CF6CD41CCF6CC41A0FBE2
:1013900001014FF0FF3000EBD1000B900B98FF28BC
:1013A00033D8FFE70B98129988600B98411C4FF0D7
:1013B0000000029040F10000119AA1FB021300FB13
:1013C0000230800040EA917089000E910F901098D1
:1013D000FEF7D5FF009001910E980F99FEF7DCFF04
:1013E000024600980B460199FFF772F8FEF7E0FFFE
:1013F0000021CBF68071FFF713F80146029808919F
:101400000899129A11610690FFE7FFE7FFE7069837
:1014100014B080BD82B001900091FFE7FEE70000AC
:1014200083B0029048F20400C1F6FF70006844F2F5
:101430002001C4F205010968C1F30261C84048F601
:101440007F51C0F25B01084449F68171C1F25E61CF
:10145000A0FB0110C00C0090FFE70298411E029112
:1014600050B1FFE700980190FFE70198411E0191FC
:1014700008B1FFE7F9E7F0E703B0704780B586B041
:1014800004908DF80F108DF80E200020ADF80C00A0
:10149000FFE7049843F20001C4F20501884208D036
:1014A000FFE7049843F20041C4F20501884201D1EC
:1014B000FFE708E045F6E860C0F2000040F27B116B
:1014C000FFF7A8FFFFE7FFE7FFE79DF80F000328FE
:1014D00001D8FFE708E045F6E860C0F200004FF4ED
:1014E000BE71FFF797FFFFE7FFE7FFE79DF80E00EC
:1014F00028B1FFE79DF80E00012801D1FFE708E0C1
:1015000045F6E860C0F2000040F27D11FFF782FF6F
:10151000FFE7FFE748F21000C1F6FF7000780028EF
:1015200040F03C81FFE748F21000C1F6FF70012156
:1015300001700498C0699DF80F2091408843029083
:101540000298002800F00681FFE70498C069C007F0
:10155000B0B3FFE79DF80F0090B3FFE70498806CED
:10156000000C01900498806E000C009000980B28ED
:1015700001D3FFE723E00098019988421DD2FFE7DD
:10158000FFE70498C069C007B0B1FFE7BDF80C00E1
:101590000130ADF80C00BDF80C00B0F5A04F0AD931
:1015A000FFE748F21001C1F6FF71002008706FF0EC
:1015B00007000590F6E0E4E700E0FFE7FFE7FFE75C
:1015C0000498C069800700283DD5FFE79DF80F000B
:1015D000012838D0FFE70498D0F88800000C01906B
:1015E0000498D0F8A800000C009000980B2801D3B4
:1015F000FFE727E000980199884221D2FFE7002009
:10160000ADF80C00FFE70498C0698007002816D5E4
:10161000FFE7BDF80C000130ADF80C00BDF80C0080
:10162000B0F5A04F0AD9FFE748F21001C1F6FF71EB
:10163000002008706FF007000590B3E0E3E700E0DA
:10164000FFE7FFE7FFE70498C069400700283DD5A2
:10165000FFE79DF80F00022838D0FFE70020ADF823
:101660000C000498D0F8C800000C01900498D0F841
:10167000E800000C009000980B2801D3FFE724E05D
:101680000098019988421ED2FFE7FFE70498C069DD
:101690004007002816D5FFE7BDF80C000130ADF873
:1016A0000C00BDF80C00B0F5A04F0AD9FFE748F2D6
:1016B0001001C1F6FF71002008706FF0070005905F
:1016C00070E0E3E700E0FFE7FFE7FFE70498C069A9
:1016D000000700283DD5FFE79DF80F00032838D00C
:1016E000FFE70020ADF80C000498D0F80801000CCA
:1016F00001900498D0F82801000C009000980B2865
:1017000001D3FFE724E00098019988421ED2FFE749
:10171000FFE70498C0690007002816D5FFE7BDF869
:101720000C000130ADF80C00BDF80C00B0F5A04F76
:101730000AD9FFE748F21001C1F6FF7100200870D6
:101740006FF0070005902DE0E3E700E0FFE7FFE71B
:10175000FFE7FFE79DF80E0001280BD1FFE79DF89A
:101760000F100120884000F00F020499C86910434F
:10177000C8610BE09DF80F10012000FA01F20499F6
:10178000C869904300F00F00C861FFE748F21001FC
:10179000C1F6FF7100200870059003E04FF0FF30A4
:1017A0000590FFE7059806B080BD000080B582B0C7
:1017B00001900091FFE7019843F20001C4F2050196
:1017C000884208D0FFE7019843F20041C4F20501C6
:1017D000884201D1FFE708E045F6E860C0F200006A
:1017E0004FF4B271FFF716FEFFE7FFE7FFE700983F
:1017F00040B1FFE7009840F00F10B0F10F1F01D18A
:10180000FFE708E045F6E860C0F2000040F265112D
:10181000FFF700FEFFE7FFE700980199886102B03B
:1018200080BD000080B582B001908DF80310FFE705
:10183000019843F20001C4F20501884208D0FFE795
:10184000019843F20041C4F20501884201D1FFE74B
:1018500007E045F6E860C0F20000FB21FFF7DAFD83
:10186000FFE7FFE7FFE79DF8030028B1FFE79DF8DA
:101870000300012801D1FFE707E045F6E860C0F268
:101880000000FC21FFF7C6FDFFE7FFE79DF803001E
:101890000199086002B080BD10B598B04FF4804047
:1018A0000121099101F038F809994FF4004001F045
:1018B00033F809994FF4003001F02EF80FA8089082
:1018C00000F022FD089A09984FF480510F9113906F
:1018D0004FF4FA7014900021129148F23820C1F6AA
:1018E000FF7011904DF20600C4F2010010901591A6
:1018F0000420169043F20000C4F2050000F018F92D
:101900001790179800287CD1FFE70CA8039000F0EF
:10191000CBFA039A4FF480600C90002106910D9150
:1019200048F21400C1F6FF7004900E9043F20000DC
:10193000C4F20500059000F01DFA049B0699059875
:10194000109A1A60119A5A60139ADDF850C042EA50
:101950000C429A609B61DDF83CC0DDF848E0159AC6
:10196000169C224342EA0E0242EA0C02DDF830E005
:10197000DDF834C042EA0E0242EA0C02DA610122CA
:10198000079200F0F1FA0598079900F0A3FA40F6E3
:101990003400C4F2010040F23F11FEF7D3FE069876
:1019A0002021ADF82810ADF82A0044F25910C0F2F9
:1019B00000000B900AA801F0B5FCBDF92A0004F064
:1019C000C7F9BDF92A000F2104F0F2F9BDF92A0088
:1019D00004F0D6F940F61400C4F2010040F21711E9
:1019E000FEF7B0FE05980799FFF71CFF0598079AC8
:1019F000114600F0ABFC05980699079AFFF73EFDEB
:101A0000FFE70FA8029000F07FFC029A4FF480508D
:101A10000F90012013904FF4FA711491002112914C
:101A20004DF20403C4F20103119348F23823C1F6C6
:101A3000FF7310931590169143F20040C4F2050015
:101A400000F076F81790179890BBFFE72420ADF8C8
:101A5000280001200190ADF82A0045F23D20C0F297
:101A600000000B900AA801F05DFCBDF92A0004F00B
:101A70006FF9BDF92A000F2104F09AF9BDF92A0087
:101A800004F07EF940F62400C4F201004FF48C719A
:101A9000FEF758FE019943F20040C4F205000090A1
:101AA000FFF7C0FE0098019A114600F04FFCFFE7D7
:101AB000179818B010BD000080B582B001908DF865
:101AC0000310FFE7019843F20001C4F205018842C8
:101AD00008D0FFE7019843F20041C4F205018842B3
:101AE00001D1FFE708E045F6E860C0F2000040F2EF
:101AF0007251FFF78FFCFFE7FFE7FFE79DF8030058
:101B0000032801D8FFE708E045F6E860C0F20000CE
:101B100040F27351FFF77EFCFFE7FFE701989DF865
:101B2000031000EB8110806E000C02B080BD00003D
:101B300080B586B005908DF81310039200200290B6
:101B4000FFE7059843F20001C4F20501884208D07E
:101B5000FFE7059843F20041C4F20501884201D134
:101B6000FFE708E045F6E860C0F200004FF46B7153
:101B7000FFF750FCFFE7FFE7FFE79DF8130003289E
:101B800001D8FFE708E045F6E860C0F2000040F247
:101B9000AD31FFF73FFCFFE7FFE7039820B9FFE710
:101BA0006FF002000290E1E0FFE70398C068B0B177
:101BB000FFE70398C068B0F5807F05D1FFE7039881
:101BC0000079C00758B1FFE70398C068B0F5007FFF
:101BD00006D1FFE703980079800708B9FFE708E01E
:101BE00045F6E860C0F2000040F2B231FFF712FCA7
:101BF000FFE7FFE7FFE70398C068B0B1FFE703988E
:101C0000C068B0F5807F05D1FFE70398007AC00770
:101C100058B1FFE70398C068B0F5007F06D1FFE731
:101C20000398007A800708B9FFE708E045F6E86006
:101C3000C0F2000040F2B331FFF7ECFBFFE7FFE733
:101C4000FFE70398806950B1FFE703988069012896
:101C500005D0FFE703988069022801D1FFE708E07B
:101C600045F6E860C0F200004FF46D71FFF7D2FB5B
:101C7000FFE7FFE7FFE70398C06950B1FFE703986C
:101C8000C069042805D0FFE70398C069082801D17E
:101C9000FFE708E045F6E860C0F2000040F2B53129
:101CA000FFF7B8FBFFE7FFE7FFE703980069B0F530
:101CB000806F01D8FFE708E045F6E860C0F2000059
:101CC00040F2B631FFF7A6FBFFE7FFE7FFE7039817
:101CD0000068B0F5805F04D0FFE70398006808B99A
:101CE000FFE708E045F6E860C0F2000040F2B731D7
:101CF000FFF790FBFFE7FFE70398406805999DF821
:101D0000132001EB821108640398806805999DF8FF
:101D1000132001EB821148640399086949696FF344
:101D20009F2040EA014005999DF8132001EB8211A4
:101D3000886405989DF8131000EB81105C300190C9
:101D40000198006841F20F329043039B1968D3F861
:101D50000CE0D3F818C0DB6941EA0E0141EA0C013E
:101D600019431140084401990860FFE7029806B042
:101D700080BD000080B586B005908DF813100392E9
:101D800000200290FFE7059843F20001C4F205012C
:101D9000884208D0FFE7059843F20041C4F20501EC
:101DA000884201D1FFE708E045F6E860C0F2000094
:101DB00040F26E41FFF72EFBFFE7FFE7FFE79DF8DC
:101DC0001300032801D8FFE708E045F6E860C0F2F9
:101DD000000040F26F41FFF71DFBFFE7FFE70398AC
:101DE00020B9FFE76FF00200029059E0FFE7039887
:101DF0000068B0F5806F04D0FFE70398006808B969
:101E0000FFE708E045F6E860C0F2000040F27441E8
:101E1000FFF700FBFFE7FFE7FFE703984068B0F537
:101E2000006F04D0FFE70398406808B9FFE708E0B7
:101E300045F6E860C0F2000040F27541FFF7EAFAAB
:101E4000FFE7FFE7FFE70398007A800708B9FFE79D
:101E500008E045F6E860C0F2000040F27641FFF786
:101E6000D9FAFFE7FFE705989DF8131000EB811002
:101E70005C30019001980068039A11685268114320
:101E8000890A61F38B20019908600398806820F02B
:101E9000030005999DF8132001EB82118865FFE787
:101EA000029806B080BD000082B001900020009032
:101EB000019820B9FFE76FF00200009007E0019958
:101EC000002008600199486001998860FFE7009848
:101ED00002B0704780B582B001908DF80310FFE723
:101EE000019843F20001C4F20501884208D0FFE7DF
:101EF000019843F20041C4F20501884201D1FFE795
:101F000008E045F6E860C0F2000040F2B541FFF796
:101F100081FAFFE7FFE7FFE79DF8030028B1FFE73D
:101F20009DF80300012801D1FFE708E045F6E860CD
:101F3000C0F2000040F2B641FFF76CFAFFE7FFE79E
:101F40009DF80300012806D1FFE70199C86A40F017
:101F50000100C86205E00199C86A20F00100C8626A
:101F6000FFE702B080BD000080B582B001908DF81F
:101F700003108DF80220FFE7019843F20001C4F23C
:101F80000501884208D0FFE7019843F20041C4F2FE
:101F90000501884201D1FFE708E045F6E860C0F29C
:101FA000000040F2C941FFF735FAFFE7FFE7FFE71E
:101FB0009DF80300032801D8FFE708E045F6E86034
:101FC000C0F2000040F2CA41FFF724FAFFE7FFE742
:101FD000FFE79DF8020028B1FFE79DF80200012805
:101FE00001D1FFE708E045F6E860C0F2000040F2EA
:101FF000CB41FFF70FFAFFE7FFE70198C06A40F611
:10200000027290439DF8031009029DF8023041EAE4
:102010004301114008440199C86202B080BD00002C
:1020200080B588B006908DF81710ADF81420002008
:10203000ADF81200FFE7069843F20001C4F2050173
:10204000884208D0FFE7069843F20041C4F2050138
:10205000884201D1FFE708E045F6E860C0F20000E1
:1020600040F25F21FFF7D6F9FFE7FFE7FFE79DF8B2
:102070001700032801D8FFE708E045F6E860C0F242
:1020800000004FF41871FFF7C5F9FFE7FFE7FFE71E
:10209000BDF81400B0F5806F01D8FFE708E045F601
:1020A000E860C0F2000040F26121FFF7B3F9FFE7FA
:1020B000FFE706989DF8171000EB8110483002905A
:1020C00002980068BDF8141061F3090002990860D5
:1020D00006989DF8171000EB811068300390BDF84A
:1020E0001400B0F5806F03D1FFE70020019003E0FA
:1020F000BDF814000190FFE70198ADF81400FFE768
:10210000BDF81400039909686FF39F21884219D024
:10211000FFE7BDF812000130ADF81200BDF8120063
:10212000B0F5805F04D9FFE76FF0070007900CE07F
:1021300002980068BDF8141061F309000299086064
:10214000FFE7DDE700200790FFE7079808B080BDB4
:1021500080B586B004908DF80F1002920020ADF883
:102160000600FFE7049843F20001C4F2050188422B
:1021700008D0FFE7049843F20041C4F20501884209
:1021800001D1FFE708E045F6E860C0F2000040F248
:102190000521FFF73FF9FFE7FFE7FFE79DF80F0095
:1021A000032801D8FFE708E045F6E860C0F2000028
:1021B00040F20621FFF72EF9FFE7FFE702980499A6
:1021C0009DF80F2001EB82110864FFE70298049943
:1021D0009DF80F2001EB8211096E884218D0FFE7AD
:1021E000BDF806000130ADF80600BDF80600B0F5F8
:1021F000805F04D9FFE76FF0070005900BE00298BD
:1022000004999DF80F2001EB82110864FFE7DDE7D8
:1022100000200590FFE7059806B080BD80B586B028
:1022200004908DF80F10ADF80C200020ADF80A00D6
:10223000FFE7049843F20001C4F20501884208D088
:10224000FFE7049843F20041C4F20501884201D13E
:10225000FFE708E045F6E860C0F200004FF41071B7
:10226000FFF7D8F8FFE7FFE7FFE79DF80F00032827
:1022700001D8FFE708E045F6E860C0F2000040F250
:102280004121FFF7C7F8FFE7FFE704989DF80F101B
:1022900000EB81104830009000980068BDF80C10E9
:1022A000C0EA01400099086004989DF80F1000EB07
:1022B000811068300190FFE7BDF80C0001990968B2
:1022C000B0EB114F19D0FFE7BDF80A000130ADF8AF
:1022D0000A00BDF80A00B0F5805F04D9FFE76FF08F
:1022E000070005900CE000980068BDF80C10C0EAEB
:1022F000014000990860FFE7DEE700200590FFE756
:10230000059806B080BD000082B0019000200090CA
:10231000019820B9FFE76FF00200009012E00199E8
:102320000020086001994860019988600199C8609F
:10233000019A01211161019948610199886101990E
:10234000C861FFE7009802B07047000080B584B014
:10235000039002918DF80720FFE7039843F20001F4
:10236000C4F20501884208D0FFE7039843F2004118
:10237000C4F20501884201D1FFE708E045F6E860B4
:10238000C0F2000040F24111FFF744F8FFE7FFE719
:10239000FFE7029840B1FFE7029840F00F10B0F15C
:1023A0000F1F01D1FFE708E045F6E860C0F200002A
:1023B0004FF4A171FFF72EF8FFE7FFE7FFE79DF865
:1023C000070028B1FFE79DF80700012801D1FFE7CA
:1023D00008E045F6E860C0F2000040F24311FFF764
:1023E00019F8FFE7FFE79DF8070030B9FFE7029A09
:1023F000039908691043086105E0029A0399086986
:1024000090430861FFE704B080BD000080B586B04E
:102410000DF10600009000F0EBFE009A0120ADF8EF
:1024200006000221ADF80810802100F0FFFB06B085
:1024300080BD000080B50120802100F0FDFE80BD40
:1024400080B594B0FFF728FA4FF4FA6002F0E0FC90
:102450000020049001210291212200F0D3FD049874
:102460000421202200F0CEFD02994FF0807000F090
:10247000AFFA08A8039003F031FC0399049A0320F3
:1024800009904FF4E1300B904FF400400F904DF263
:102490000000C4F2010003F0CBFA0590059818B1D2
:1024A000FFE70598139062E00220ADF81A0040F2B1
:1024B0001910ADF8180045F60920C0F20000079089
:1024C00006A8009000F02EFFBDF91A0003F040FCB2
:1024D000BDF91A000F21019103F06AFCBDF91A0041
:1024E00003F04EFC00980321ADF81A104FF48B71E5
:1024F000ADF8181045F2E571C0F20001079100F047
:1025000011FFBDF91A0003F023FC0199BDF91A006F
:1025100003F04EFCBDF91A0003F032FC00980421D0
:10252000ADF81A104FF48D71ADF8181045F605018D
:10253000C0F20001079100F0F5FEBDF91A0003F0AA
:1025400007FC0199BDF91A0003F032FCBDF91A002D
:1025500003F016FCFEF7D6F94DF20000C4F20100BC
:102560002721012203F03CF800201390FFE7139885
:1025700014B080BD80B584B00290ADF80610009212
:10258000029818B1FFE7009820B9FFE700208DF806
:102590000F0035E048F22C40C1F6FF7000780128AA
:1025A00004D0FFE700208DF80F0029E048F22C410D
:1025B000C1F6FF710020087048F22E40C1F6FF708E
:1025C0000088BDF80610884205DDFFE7BDF806006B
:1025D0000099088007E048F22E40C1F6FF7000889D
:1025E00000990880FFE7029800990A8848F238218C
:1025F000C1F6FF71FDF7B1FE01208DF80F00FFE776
:102600009DF80F0004B080BD80B588B00690ADF88D
:102610001610069820B1FFE7BDF8160020B9FFE7B5
:102620006FF0020007906BE048F22D40C1F6FF709A
:102630000078012804D1FFE76FF0050007905FE004
:1026400048F22D41C1F6FF7101200190087043F25C
:102650000040C4F205000290002203921146FEF7EA
:102660000DFF01990298FFF7A1F802980399069AC5
:10267000FFF76EFD0490049858B9FFE7BDF81620E7
:1026800043F20040C4F205000021FFF7C7FD0490AB
:10269000FFE7049850B9FFE743F20040C4F2050099
:1026A00000210122FFF7BCFC0490FFE7049850B919
:1026B000FFE743F20040C4F2050000210122FEF7CB
:1026C000DDFE0490FFE7049848B9FFE74DF20000F3
:1026D000C4F201000821012202F082FF0DE048F25D
:1026E0002D40C1F6FF700022027043F20040C4F298
:1026F00005001146FEF7C2FEFFE704980790FFE7CA
:10270000079808B080BD000080B582B08DF8070042
:10271000FFE79DF8070028B1FFE79DF807000128B3
:1027200001D1FFE708E045F62370C0F2000040F257
:102730007111FEF76FFEFFE7FFE7FFE740F2004091
:10274000C4F201000068012801D1FFE708E045F666
:102750002370C0F200004FF4B971FEF75BFEFFE793
:10276000FFE79DF8070048F24011C4F220210860FD
:1027700002B080BD80B582B08DF80700FFE79DF8FC
:10278000070028B1FFE79DF80700012801D1FFE706
:1027900008E045F62370C0F2000040F26311FEF736
:1027A00039FEFFE7FFE7FFE740F20040C4F2010017
:1027B0000068012801D1FFE708E045F62370C0F268
:1027C00000004FF4B271FEF725FEFFE7FFE79DF82A
:1027D000070048F26011C4F22021086002B080BDF9
:1027E00040F20041C4F2010100200860704700007F
:1027F00040F20041C4F2010140F22310086043F2AC
:10280000102008607047000080B584B0029000205E
:102810000190FFE740F20040C4F201000068012887
:1028200001D1FFE708E045F62370C0F2000040F256
:102830004F11FEF7EFFDFFE7FFE7FFE70298F028F3
:1028400001D8FFE708E045F62370C0F200004FF41E
:10285000A871FEF7DFFDFFE7FFE740F20841C4F291
:1028600001010868029A120962F307100860FFE785
:10287000029840F20841C4F20101096801F0F00138
:10288000884220D0FFE7019801300190019848F27A
:102890000401C1F6FF71096844F22002C4F2050286
:1028A0001268C2F30262D14041F25972CDF2B712FE
:1028B000A1FB0221B0EB913F04D9FFE76FF00700C5
:1028C000039003E0D4E700200390FFE7039804B0EF
:1028D00080BD000080B582B00190FFE7019840B153
:1028E000FFE701984FF6FF710843884201D1FFE7E7
:1028F00008E045F6D570C0F2000040F20F21FEF767
:1029000089FDFFE7FFE7019841F25801C4F2050194
:10291000086002B080BD000080B582B001908DF8E3
:102920000310FFE7019850B1FFE701984CF21151F5
:10293000C8F6F3710843884201D1FFE707E045F686
:102940005E70C0F200007121FEF764FDFFE7FFE753
:10295000FFE79DF8030028B1FFE79DF80300012879
:1029600001D1FFE707E045F65E70C0F2000072217A
:10297000FEF750FDFFE7FFE7FFE748F21000C4F263
:1029800004000068C00708B1FFE707E045F65E7085
:10299000C0F200007321FEF73DFDFFE7FFE79DF861
:1029A0000300012809D1FFE7019A48F20001C4F2AF
:1029B000040108689043086008E0019A48F20001A9
:1029C000C4F20401086810430860FFE702B080BD4C
:1029D00080B582B001908DF80310FFE7019850B1E7
:1029E000FFE701984FF67951C0F60F71084388420E
:1029F00001D1FFE707E045F65E70C0F200008421D8
:102A0000FEF708FDFFE7FFE7FFE79DF8030028B1A9
:102A1000FFE79DF80300012801D1FFE707E045F635
:102A20005E70C0F200008521FEF7F4FCFFE7FFE7CF
:102A30009DF80300012809D1FFE7019A48F204013B
:102A4000C4F2040108689043086008E0019A48F263
:102A50000401C4F20401086810430860FFE702B0F3
:102A600080BD000080B582B001908DF80310FFE7B3
:102A7000019850B1FFE7019848F2FF71C0F20701D9
:102A80000843884201D1FFE707E045F65E70C0F2D7
:102A900000009621FEF7BEFCFFE7FFE7FFE79DF889
:102AA000030028B1FFE79DF80300012801D1FFE7EB
:102AB00007E045F65E70C0F200009721FEF7AAFC21
:102AC000FFE7FFE79DF80300012809D1FFE7019A1E
:102AD00048F20801C4F2040108689043086008E065
:102AE000019A48F20801C4F2040108681043086022
:102AF000FFE702B080BD000080B584B08DF80F0004
:102B0000ADF80C108DF80B20FFE743F6FC30C4F253
:102B100005000088C00708B1FFE708E045F6997096
:102B2000C0F2000040F28121FEF774FCFFE7FFE7EE
:102B3000FFE79DF80F00C8B1FFE79DF80F000128DF
:102B400014D0FFE79DF80F0002280FD0FFE79DF893
:102B50000F0003280AD0FFE79DF80F00042805D0D6
:102B6000FFE79DF80F00052801D1FFE708E045F6D3
:102B70009970C0F2000040F28221FEF74BFCFFE7A3
:102B8000FFE7FFE7BDF80C0028B1FFE7BDF80C0038
:102B900008B1FFE708E045F69970C0F2000040F286
:102BA0008321FEF737FCFFE7FFE700208DF80300E5
:102BB000FFE79DF803000F2835D8FFE7BDF80C00AC
:102BC000C007F8B1FFE79DF80F0080019DF80310E2
:102BD00000EB810043F60041C4F205010844019076
:102BE0009DF80B00012806D1FFE70199088840F401
:102BF0000040088005E0019908886FF3DF30088005
:102C0000FFE7FFE7BDF80C004008ADF80C00BDF889
:102C10000C0008B9FFE706E0FFE79DF8030001306C
:102C20008DF80300C5E704B080BD000080B588B012
:102C30008DF81F00ADF81C10069200200390069836
:102C400020B9FFE76FF00200039073E1FFE743F65E
:102C5000FC30C4F205000088C00708B1FFE708E0B7
:102C600045F69970C0F200004FF48071FEF7D2FB78
:102C7000FFE7FFE7FFE79DF81F00C8B1FFE79DF8FA
:102C80001F00012814D0FFE79DF81F0002280FD075
:102C9000FFE79DF81F0003280AD0FFE79DF81F00FB
:102CA000042805D0FFE79DF81F00052801D1FFE7A4
:102CB00008E045F69970C0F2000040F20111FEF7FD
:102CC000A9FBFFE7FFE7FFE7BDF81C0028B1FFE71E
:102CD000BDF81C0008B1FFE708E045F69970C0F2A6
:102CE00000004FF48171FEF795FBFFE7FFE7FFE778
:102CF0000698008828B1FFE706980088012801D1CE
:102D0000FFE708E045F69970C0F2000040F20311B9
:102D1000FEF780FBFFE7FFE7FFE70698408828B152
:102D2000FFE706984088022801D1FFE708E045F652
:102D30009970C0F200004FF48271FEF76BFBFFE761
:102D4000FFE7FFE70698808828B1FFE706988088AC
:102D5000042801D1FFE708E045F69970C0F20000B1
:102D600040F20511FEF756FBFFE7FFE7FFE7069885
:102D7000C08850B1FFE70698C088102805D0FFE74B
:102D80000698C088202801D1FFE708E045F6997031
:102D9000C0F200004FF48371FEF73CFBFFE7FFE752
:102DA000FFE70698008930B1FFE706980089B0F583
:102DB000804F01D1FFE708E045F69970C0F20000AE
:102DC00040F20711FEF726FBFFE7FFE7FFE7069853
:102DD000408928B1FFE706984089402801D1FFE7E4
:102DE00008E045F69970C0F200004FF48471FEF7D8
:102DF00011FBFFE7FFE7FFE70698808930B1FFE7A7
:102E000006988089B0F5007F01D1FFE708E045F61C
:102E10009970C0F2000040F20911FEF7FBFAFFE7DB
:102E2000FFE7FFE70698C08930B1FFE70698C08941
:102E3000B0F5805F01D1FFE708E045F69970C0F278
:102E400000004FF48571FEF7E5FAFFE7FFE7FFE7C3
:102E50000698008A30B1FFE70698008AB0F5004F67
:102E600001D1FFE708E045F69970C0F2000040F29A
:102E70000B11FEF7CFFAFFE7FFE700208DF81700F0
:102E8000FFE79DF817000F2853D8FFE7BDF81C0097
:102E9000C007E8B3FFE70699019108884A88104304
:102EA0008A881043CA8810434A8910438A8910438C
:102EB000CA89104309890843ADF8140045F2772008
:102EC000ADF812000698018ABDF814000843ADF869
:102ED0001400BDF8120040F40040ADF812009DF857
:102EE0001F0080019DF8171000EB810043F60041A0
:102EF000C4F205010844029002980088BDF812202F
:102F00009043BDF814101140084402990880FFE76F
:102F1000BDF81C004008ADF81C00BDF81C0008B945
:102F2000FFE706E0FFE79DF8170001308DF8170076
:102F3000A7E7FFE7039808B080BD000043F6FC3127
:102F4000C4F205014FF425400880704743F6FC3178
:102F5000C4F205014AF201500880704780B582B082
:102F60008DF80700ADF80410FFE79DF80700C8B121
:102F7000FFE79DF80700012814D0FFE79DF8070040
:102F800002280FD0FFE79DF8070003280AD0FFE7CB
:102F90009DF80700042805D0FFE79DF807000528E5
:102FA00001D1FFE708E045F69970C0F200004FF448
:102FB000FF71FEF72FFAFFE7FFE7FFE7BDF8040018
:102FC00028B1FFE7BDF8040008B1FFE708E045F6C7
:102FD0009970C0F2000040F2FF11FEF71BFAFFE704
:102FE000FFE79DF80700010143F60000C4F2050069
:102FF000405ABDF80410084080B2002818BF0120D4
:1030000002B080BD80B584B08DF80F00ADF80C1013
:10301000ADF80A20FFE79DF80F00C8B1FFE79DF863
:103020000F00012814D0FFE79DF80F0002280FD0F1
:10303000FFE79DF80F0003280AD0FFE79DF80F0077
:10304000042805D0FFE79DF80F00052801D1FFE710
:1030500008E045F69970C0F200004FF4BE71FEF72B
:10306000D9F9FFE7FFE7FFE7BDF80C0028B1FFE75C
:10307000BDF80C0008B1FFE708E045F69970C0F212
:10308000000040F27D11FEF7C5F9FFE7FFE7FFE71B
:10309000BDF80A0010280AD3FFE7BDF80A0020286F
:1030A00006D3FFE7BDF80A003B2801D8FFE708E098
:1030B00045F69970C0F200004FF4BF71FEF7AAF90F
:1030C000FFE7FFE7FFE743F6FC30C4F205000088A6
:1030D000C00708B1FFE708E045F69970C0F20000AC
:1030E00040F27F11FEF796F9FFE7FFE700208DF829
:1030F0000900FFE79DF809000F282CD8FFE7BDF86D
:103100000C00C007B0B1FFE79DF80F0080019DF8EB
:10311000091000EB810043F60241C4F205010844A6
:10312000019001980088BDF80A1061F3050001992B
:103130000880FFE7BDF80C004008ADF80C00BDF8B2
:103140000C0008B9FFE706E0FFE79DF80900013031
:103150008DF80900CEE704B080BD000080B582B0D4
:10316000ADF80600FFE7BDF8060090B1FFE7BDF837
:103170000600B0F5804F0CD0FFE7BDF80600B0F5B3
:10318000004F06D0FFE7BDF80600B0F5404F01D173
:10319000FFE708E045F69970C0F200004FF4ED71CA
:1031A000FEF738F9FFE7FFE7FFE743F6FC30C4F22C
:1031B00005000088C00708B1FFE708E045F69970F0
:1031C000C0F2000040F2DB11FEF724F9FFE7FFE751
:1031D00043F6F831C4F2050108886FF39F30BDF85B
:1031E000062002F440421044088002B080BD000076
:1031F00083B0029000200190029820B9FFE76FF0A1
:103200000200019014E002990020009008800299C9
:1032100048800299C880029908820299088102991F
:103220004881029988810299C88102998880FFE7C4
:10323000019803B07047000080B582B08DF8070098
:10324000ADF80410FFE79DF80700C8B1FFE79DF84F
:103250000700012814D0FFE79DF8070002280FD0CF
:10326000FFE79DF8070003280AD0FFE79DF8070055
:10327000042805D0FFE79DF80700052801D1FFE7E6
:1032800008E045F69970C0F2000040F26D21FEF7AB
:10329000C1F8FFE7FFE7FFE7BDF8040028B1FFE74B
:1032A000BDF8040008B1FFE708E045F69970C0F2E8
:1032B000000040F26E21FEF7ADF8FFE7FFE79DF852
:1032C000071043F60C00C4F2050000EB011000905B
:1032D000BDF80420009908881043088002B080BD22
:1032E00080B582B0FDF702FB0190019848F23401ED
:1032F000C1F6FF710968401AB0F57A7F10D3FFE775
:10330000019848F23401C1F6FF710860FFF792F8A6
:1033100048F20800C1F6FF700521FFF775F9FFE7D5
:1033200002B080BD80B584B0039000200190039866
:1033300020B9FFE76FF00200019071E0FFE703980A
:103340000088B0F5007F01DAFFE707E045F6D570A9
:10335000C0F20000CD21FEF75DF8FFE7FFE703991B
:103360000888400900EB4002202000EB4200B1F940
:10337000021088420DD8FFE703990888400900EB46
:103380004002252000EB4200B1F9021088420AD227
:10339000FFE70398B0F90200202804D3FFE76FF09D
:1033A000020001903BE00398B0F9021041F25C008A
:1033B000C4F2050000EB81000290029800686FF3F0
:1033C0005F2040F2FF1188420FD1FFE70398008889
:1033D0000299086003994868B1F9022048F238015F
:1033E000C1F6FF7141F8220018E0039800880299A5
:1033F00009686FF35F2188420BD1FFE703994868A2
:10340000B1F9022048F23801C1F6FF7141F82200FB
:1034100003E06FF001000190FFE7FFE7FFE7FFE740
:10342000019804B080BD000080B548F23800C1F6B4
:10343000FF7000688047BFF34F8F80BD80B548F2B2
:103440003800C1F6FF7040688047BFF34F8F80BDE2
:1034500080B548F23800C1F6FF7080688047BFF33E
:103460004F8F80BD80B548F23800C1F6FF70C0684C
:103470008047BFF34F8F80BD80B548F23800C1F65A
:10348000FF7000698047BFF34F8F80BD80B548F261
:103490003800C1F6FF7040698047BFF34F8F80BD91
:1034A00080B548F23800C1F6FF7080698047BFF3ED
:1034B0004F8F80BD80B548F23800C1F6FF70C069FB
:1034C0008047BFF34F8F80BD80B548F23800C1F60A
:1034D000FF70006A8047BFF34F8F80BD80B548F210
:1034E0003800C1F6FF70406A8047BFF34F8F80BD40
:1034F00080B548F23800C1F6FF70806A8047BFF39C
:103500004F8F80BD80B548F23800C1F6FF70C06AA9
:103510008047BFF34F8F80BD80B548F23800C1F6B9
:10352000FF70006B8047BFF34F8F80BD80B548F2BE
:103530003800C1F6FF70406B8047BFF34F8F80BDEE
:1035400080B548F23800C1F6FF70806B8047BFF34A
:103550004F8F80BD80B548F23800C1F6FF70C06B58
:103560008047BFF34F8F80BD80B548F23800C1F669
:10357000FF70006C8047BFF34F8F80BD80B548F26D
:103580003800C1F6FF70406C8047BFF34F8F80BD9D
:1035900080B548F23800C1F6FF70806C8047BFF3F9
:1035A0004F8F80BD80B548F23800C1F6FF70C06C07
:1035B0008047BFF34F8F80BD80B548F23800C1F619
:1035C000FF70006D8047BFF34F8F80BD80B548F21C
:1035D0003800C1F6FF70406D8047BFF34F8F80BD4C
:1035E00080B548F23800C1F6FF70806D8047BFF3A8
:1035F0004F8F80BD80B548F23800C1F6FF70C06DB6
:103600008047BFF34F8F80BD80B548F23800C1F6C8
:10361000FF70006E8047BFF34F8F80BD80B548F2CA
:103620003800C1F6FF70406E8047BFF34F8F80BDFA
:1036300080B548F23800C1F6FF70806E8047BFF356
:103640004F8F80BD80B548F23800C1F6FF70C06E64
:103650008047BFF34F8F80BD80B548F23800C1F678
:10366000FF70006F8047BFF34F8F80BD80B548F279
:103670003800C1F6FF70406F8047BFF34F8F80BDA9
:1036800080B548F23800C1F6FF70806F8047BFF305
:103690004F8F80BD80B548F23800C1F6FF70C06F13
:1036A0008047BFF34F8F80BD80B548F23800C1F628
:1036B000FF70D0F880008047BFF34F8F80BD0000BF
:1036C00080B548F23800C1F6FF70D0F8840080471A
:1036D000BFF34F8F80BD000080B548F23800C1F6BF
:1036E000FF70D0F888008047BFF34F8F80BD000087
:1036F00080B548F23800C1F6FF70D0F88C008047E2
:10370000BFF34F8F80BD000080B548F23800C1F68E
:10371000FF70D0F890008047BFF34F8F80BD00004E
:1037200080B548F23800C1F6FF70D0F894008047A9
:10373000BFF34F8F80BD000080B548F23800C1F65E
:10374000FF70D0F898008047BFF34F8F80BD000016
:1037500080B548F23800C1F6FF70D0F89C00804771
:10376000BFF34F8F80BD000080B548F23800C1F62E
:10377000FF70D0F8A0008047BFF34F8F80BD0000DE
:1037800080B548F23800C1F6FF70D0F8A400804739
:10379000BFF34F8F80BD000080B548F23800C1F6FE
:1037A000FF70D0F8A8008047BFF34F8F80BD0000A6
:1037B00080B548F23800C1F6FF70D0F8AC00804701
:1037C000BFF34F8F80BD000080B548F23800C1F6CE
:1037D000FF70D0F8B0008047BFF34F8F80BD00006E
:1037E00080B548F23800C1F6FF70D0F8B4008047C9
:1037F000BFF34F8F80BD000080B548F23800C1F69E
:10380000FF70D0F8B8008047BFF34F8F80BD000035
:1038100080B548F23800C1F6FF70D0F8BC00804790
:10382000BFF34F8F80BD000080B548F23800C1F66D
:10383000FF70D0F8C0008047BFF34F8F80BD0000FD
:1038400080B548F23800C1F6FF70D0F8C400804758
:10385000BFF34F8F80BD000080B548F23800C1F63D
:10386000FF70D0F8C8008047BFF34F8F80BD0000C5
:1038700080B548F23800C1F6FF70D0F8CC00804720
:10388000BFF34F8F80BD000080B548F23800C1F60D
:10389000FF70D0F8D0008047BFF34F8F80BD00008D
:1038A00080B548F23800C1F6FF70D0F8D4008047E8
:1038B000BFF34F8F80BD000080B548F23800C1F6DD
:1038C000FF70D0F8D8008047BFF34F8F80BD000055
:1038D00080B548F23800C1F6FF70D0F8DC008047B0
:1038E000BFF34F8F80BD000080B548F23800C1F6AD
:1038F000FF70D0F8E0008047BFF34F8F80BD00001D
:1039000080B548F23800C1F6FF70D0F8E400804777
:10391000BFF34F8F80BD000080B548F23800C1F67C
:10392000FF70D0F8E8008047BFF34F8F80BD0000E4
:1039300080B548F23800C1F6FF70D0F8EC0080473F
:10394000BFF34F8F80BD000080B548F23800C1F64C
:10395000FF70D0F8F0008047BFF34F8F80BD0000AC
:1039600080B548F23800C1F6FF70D0F8F400804707
:10397000BFF34F8F80BD000080B548F23800C1F61C
:10398000FF70D0F8F8008047BFF34F8F80BD000074
:1039900080B548F23800C1F6FF70D0F8FC008047CF
:1039A000BFF34F8F80BD000080B548F23800C1F6EC
:1039B000FF70D0F800018047BFF34F8F80BD00003B
:1039C00080B548F23800C1F6FF70D0F80401804796
:1039D000BFF34F8F80BD000080B548F23800C1F6BC
:1039E000FF70D0F808018047BFF34F8F80BD000003
:1039F00080B548F23800C1F6FF70D0F80C0180475E
:103A0000BFF34F8F80BD000080B548F23800C1F68B
:103A1000FF70D0F810018047BFF34F8F80BD0000CA
:103A200080B548F23800C1F6FF70D0F81401804725
:103A3000BFF34F8F80BD000080B548F23800C1F65B
:103A4000FF70D0F818018047BFF34F8F80BD000092
:103A500080B548F23800C1F6FF70D0F81C018047ED
:103A6000BFF34F8F80BD000080B548F23800C1F62B
:103A7000FF70D0F820018047BFF34F8F80BD00005A
:103A800080B548F23800C1F6FF70D0F824018047B5
:103A9000BFF34F8F80BD000080B548F23800C1F6FB
:103AA000FF70D0F828018047BFF34F8F80BD000022
:103AB00080B548F23800C1F6FF70D0F82C0180477D
:103AC000BFF34F8F80BD000080B548F23800C1F6CB
:103AD000FF70D0F830018047BFF34F8F80BD0000EA
:103AE00080B548F23800C1F6FF70D0F83401804745
:103AF000BFF34F8F80BD000080B548F23800C1F69B
:103B0000FF70D0F838018047BFF34F8F80BD0000B1
:103B100080B548F23800C1F6FF70D0F83C0180470C
:103B2000BFF34F8F80BD000080B548F23800C1F66A
:103B3000FF70D0F840018047BFF34F8F80BD000079
:103B400080B548F23800C1F6FF70D0F844018047D4
:103B5000BFF34F8F80BD000080B548F23800C1F63A
:103B6000FF70D0F848018047BFF34F8F80BD000041
:103B700080B548F23800C1F6FF70D0F84C0180479C
:103B8000BFF34F8F80BD000080B548F23800C1F60A
:103B9000FF70D0F850018047BFF34F8F80BD000009
:103BA00080B548F23800C1F6FF70D0F85401804764
:103BB000BFF34F8F80BD000080B548F23800C1F6DA
:103BC000FF70D0F858018047BFF34F8F80BD0000D1
:103BD00080B548F23800C1F6FF70D0F85C0180472C
:103BE000BFF34F8F80BD000080B548F23800C1F6AA
:103BF000FF70D0F860018047BFF34F8F80BD000099
:103C000080B548F23800C1F6FF70D0F864018047F3
:103C1000BFF34F8F80BD000080B548F23800C1F679
:103C2000FF70D0F868018047BFF34F8F80BD000060
:103C300080B548F23800C1F6FF70D0F86C018047BB
:103C4000BFF34F8F80BD000080B548F23800C1F649
:103C5000FF70D0F870018047BFF34F8F80BD000028
:103C600080B548F23800C1F6FF70D0F87401804783
:103C7000BFF34F8F80BD000080B548F23800C1F619
:103C8000FF70D0F878018047BFF34F8F80BD0000F0
:103C900080B548F23800C1F6FF70D0F87C0180474B
:103CA000BFF34F8F80BD000080B548F23800C1F6E9
:103CB000FF70D0F880018047BFF34F8F80BD0000B8
:103CC00080B548F23800C1F6FF70D0F88401804713
:103CD000BFF34F8F80BD000080B548F23800C1F6B9
:103CE000FF70D0F888018047BFF34F8F80BD000080
:103CF00080B548F23800C1F6FF70D0F88C018047DB
:103D0000BFF34F8F80BD000080B548F23800C1F688
:103D1000FF70D0F890018047BFF34F8F80BD000047
:103D200080B548F23800C1F6FF70D0F894018047A2
:103D3000BFF34F8F80BD000080B548F23800C1F658
:103D4000FF70D0F898018047BFF34F8F80BD00000F
:103D500080B548F23800C1F6FF70D0F89C0180476A
:103D6000BFF34F8F80BD000080B548F23800C1F628
:103D7000FF70D0F8A0018047BFF34F8F80BD0000D7
:103D800080B548F23800C1F6FF70D0F8A401804732
:103D9000BFF34F8F80BD000080B548F23800C1F6F8
:103DA000FF70D0F8A8018047BFF34F8F80BD00009F
:103DB00080B548F23800C1F6FF70D0F8AC018047FA
:103DC000BFF34F8F80BD000080B548F23800C1F6C8
:103DD000FF70D0F8B0018047BFF34F8F80BD000067
:103DE00080B548F23800C1F6FF70D0F8B4018047C2
:103DF000BFF34F8F80BD000080B548F23800C1F698
:103E0000FF70D0F8B8018047BFF34F8F80BD00002E
:103E100080B548F23800C1F6FF70D0F8BC01804789
:103E2000BFF34F8F80BD000080B548F23800C1F667
:103E3000FF70D0F8C0018047BFF34F8F80BD0000F6
:103E400080B548F23800C1F6FF70D0F8C401804751
:103E5000BFF34F8F80BD000080B548F23800C1F637
:103E6000FF70D0F8C8018047BFF34F8F80BD0000BE
:103E700080B548F23800C1F6FF70D0F8CC01804719
:103E8000BFF34F8F80BD000080B548F23800C1F607
:103E9000FF70D0F8D0018047BFF34F8F80BD000086
:103EA00080B548F23800C1F6FF70D0F8D4018047E1
:103EB000BFF34F8F80BD000080B548F23800C1F6D7
:103EC000FF70D0F8D8018047BFF34F8F80BD00004E
:103ED00080B548F23800C1F6FF70D0F8DC018047A9
:103EE000BFF34F8F80BD000080B548F23800C1F6A7
:103EF000FF70D0F8E0018047BFF34F8F80BD000016
:103F000080B548F23800C1F6FF70D0F8E401804770
:103F1000BFF34F8F80BD000080B548F23800C1F676
:103F2000FF70D0F8E8018047BFF34F8F80BD0000DD
:103F300080B548F23800C1F6FF70D0F8EC01804738
:103F4000BFF34F8F80BD000080B548F23800C1F646
:103F5000FF70D0F8F0018047BFF34F8F80BD0000A5
:103F600080B548F23800C1F6FF70D0F8F401804700
:103F7000BFF34F8F80BD000080B548F23800C1F616
:103F8000FF70D0F8F8018047BFF34F8F80BD00006D
:103F900080B548F23800C1F6FF70D0F8FC018047C8
:103FA000BFF34F8F80BD000080B582B001909DF8B7
:103FB0000400C00718B1FFE7FEF71AFCFFE79DF801
:103FC00004008007002803D5FFE700F073F8FFE73F
:103FD0009DF804004007002803D5FFE7FEF7B6FF71
:103FE000FFE79DF80400C006002805D5FFE74AF268
:103FF000085000F0A3F8FFE79DF8040040060028F1
:1040000005D5FFE74AF2035000F098F8FFE79DF866
:1040100004000006002803D5FFE700F0C9F8FFE719
:1040200002B080BD80B582B001909DF80400C00749
:1040300018B1FFE7FEF7D4FBFFE79DF80400800707
:10404000002803D5FFE700F02BF8FFE79DF80400F8
:104050004007002803D5FFE7FEF770FFFFE79DF854
:104060000400C006002805D5FFE74AF2085000F01A
:1040700055F8FFE79DF804004006002805D5FFE746
:104080004AF2035000F04AF8FFE79DF804000006EA
:10409000002803D5FFE700F07FF8FFE702B080BDFE
:1040A00048F21001C4F204010020CAF2A5500860D1
:1040B0007047000048F21001C4F204010120CAF266
:1040C000A55008607047000080B5FFE744F2FE305D
:1040D000C4F2050000888007002801D5FFE708E04A
:1040E00046F21700C0F2000040F2AD41FDF792F930
:1040F000FFE7FFE744F20241C4F20501087800F04F
:10410000C0000F30087044F20F41C4F205011020C6
:1041100008701E20FDF784F9002080BD81B0ADF845
:104120000200BDF8022044F2FE31C4F20501088805
:10413000904340F42540088001B0704781B0ADF84D
:104140000200BDF8022044F2FE31C4F205010888E5
:104150001043088001B0704780B582B048F22C400F
:10416000C1F6FF7001210191017048F22E42C1F6A3
:10417000FF724FF4FA7010804DF20000C4F201009B
:10418000002201F02DFA019943F20000C4F205006B
:10419000FDF70CFB02B080BD40F60401C4F205013E
:1041A0007620086040F60C01C4F2050108607047F3
:1041B00040F60401C4F205017720086040F60C01C6
:1041C000C4F205010860704780B584B00390029185
:1041D000019200208DF80300FFE7039838B1FFE754
:1041E000039840F00F000F2801D1FFE707E046F2E7
:1041F0005200C0F20000C721FDF70CF9FFE7FFE70E
:10420000FFE70298072801D8FFE707E046F25200CF
:10421000C0F20000C821FDF7FDF8FFE7FFE7FFE768
:104220000198072801D8FFE707E046F25200C0F2E4
:104230000000C921FDF7EEF8FFE7FFE7FFE740F6D2
:104240000400C4F205000068772801D1FFE707E009
:1042500046F25200C0F20000CA21FDF7DBF8FFE78A
:10426000FFE7FFE70398A8B3FFE79DF80C00C0073E
:1042700038B3FFE79DF80300C0008DF801009DF8FA
:10428000010004308DF8020040F60001C4F205017F
:1042900008689DF802C0072303FA0CF29DF801E0BC
:1042A00003FA0EF313439843029A02FA0CF2DDF874
:1042B00004C00CFA0EFC42EA0C021A4010440860DA
:1042C000FFE70398400803909DF8030001308DF844
:1042D0000300C7E704B080BD80B588B007900691A1
:1042E00000208DF8170048F20000C4F204000068B6
:1042F000049048F20400C4F204000068039048F2FD
:104300000800C4F204000068029048F20C00C4F2F5
:10431000040000680190FFE79DF81B00400750B3C0
:10432000FFE7069800F0E060B0F1807F23D0FFE760
:10433000069800F0E060B0F1007F1CD0FFE706981F
:1043400000F0E060B0F1407F15D0FFE7069800F084
:10435000E060B0F1806F0ED0FFE7069800F0E060FB
:10436000B0F1A06F07D0FFE7069800F0E060B0F171
:10437000C06F01D1FFE708E045F6AD60C0F2000074
:1043800040F2A121FDF746F8FFE7FFE7FFE79DF8C0
:10439000180010F0700F24D0FFE7069800F07000AE
:1043A00010281ED0FFE7069800F07000202818D0D3
:1043B000FFE7069800F07000302812D0FFE706985B
:1043C00000F0700040280CD0FFE7069800F0700065
:1043D000502806D0FFE7069800F07000602801D151
:1043E000FFE708E045F6AD60C0F2000040F2A22110
:1043F000FDF710F8FFE7FFE7FFE79DF81A00400719
:1044000050B3FFE7069800F4E020B0F5803F23D0DA
:10441000FFE7069800F4E020B0F5003F1CD0FFE76E
:10442000069800F4E020B0F5403F15D0FFE706986D
:1044300000F4E020B0F5802F0ED0FFE7069800F4DE
:10444000E020B0F5A02F07D0FFE7069800F4E020A9
:10445000B0F5C02F01D1FFE708E045F6AD60C0F22E
:10446000000040F2A321FCF7D5FFFFE7FFE7FFE7DD
:104470009DF81A0010F0700F2AD0FFE7069800F49C
:10448000E000B0F5801F23D0FFE7069800F4E000BD
:10449000B0F5001F1CD0FFE7069800F4E000B0F56F
:1044A000401F15D0FFE7069800F4E000B0F5800F3C
:1044B0000ED0FFE7069800F4E000B0F5A00F07D09B
:1044C000FFE7069800F4E000B0F5C00F01D1FFE768
:1044D00008E045F6AD60C0F200004FF42971FCF72A
:1044E00099FFFFE7FFE7FFE79DF81800400720B3BB
:1044F000FFE7069800F0070001281ED0FFE70698A6
:1045000000F00700022818D0FFE7069800F0070027
:10451000032812D0FFE7069800F0070004280CD00B
:10452000FFE7069800F00700052806D0FFE7069889
:1045300000F00700062801D1FFE708E045F6AD606E
:10454000C0F2000040F2A521FCF764FFFFE7FFE79F
:10455000FFE79DF81900400750B3FFE7069800F405
:10456000E060B0F5807F23D0FFE7069800F4E060BC
:10457000B0F5007F1CD0FFE7069800F4E060B0F5CE
:10458000407F15D0FFE7069800F4E060B0F5806F3B
:104590000ED0FFE7069800F4E060B0F5A06F07D0FA
:1045A000FFE7069800F4E060B0F5C06F01D1FFE7C7
:1045B00008E045F6AD60C0F2000040F2A621FCF72D
:1045C00029FFFFE7FFE7FFE79DF8190010F0700FE4
:1045D0002AD0FFE7069800F4E040B0F5805F23D0D2
:1045E000FFE7069800F4E040B0F5005F1CD0FFE75D
:1045F000069800F4E040B0F5405F15D0FFE706985C
:1046000000F4E040B0F5804F0ED0FFE7069800F4CC
:10461000E040B0F5A04F07D0FFE7069800F4E04077
:10462000B0F5C04F01D1FFE708E045F6AD60C0F23C
:10463000000040F2A721FCF7EDFEFFE7FFE7FFE7F0
:10464000079847F27771C0F27771084201D0FFE70F
:1046500008E045F6AD60C0F200004FF42A71FCF7A7
:10466000D9FEFFE7FFE7FFE744F2FE30C4F20500A2
:104670000088C00708B1FFE708E045F6AD60C0F26A
:10468000000040F2A921FCF7C5FEFFE7FFE744F276
:104690002600C4F20500007800F00700052835D197
:1046A000FFE701208DF81700FFE748F21000C4F281
:1046B00004000068C00708B1FFE708E045F6AD60F8
:1046C000C0F200004FF42C71FCF7A4FEFFE7FFE7F7
:1046D00048F20001C4F204014FF6EE20CFF6FF705D
:1046E000086048F20401C4F204014FF0FF30086092
:1046F00048F20801C4F20401086048F20C01C4F257
:10470000040108601E20FCF78BFEFFE744F2200145
:10471000C4F205010868079B9843069A1A401044A2
:1047200008601E20FCF77CFE9DF8170001281CD1B4
:10473000FFE7049848F20001C4F2040108600398FE
:1047400048F20401C4F204010860029848F208012A
:10475000C4F204010860019848F20C01C4F204019B
:1047600008601E20FCF75CFEFFE708B080BD00007B
:1047700080B586B08DF8170000208DF8160048F23D
:104780000000C4F204000068049048F20400C4F27F
:1047900004000068039048F20800C4F204000068B6
:1047A000029048F20C00C4F2040000680190FFE798
:1047B0009DF81700C8B1FFE79DF81700012814D035
:1047C000FFE79DF8170002280FD0FFE79DF81700BC
:1047D00003280AD0FFE79DF81700042805D0FFE75B
:1047E0009DF81700052801D1FFE708E045F6AD6008
:1047F000C0F2000040F23721FCF70CFEFFE7FFE7B4
:10480000FFE744F2FE30C4F205000088C00708B19B
:10481000FFE708E045F6AD60C0F200004FF40E710E
:10482000FCF7F8FDFFE7FFE744F22600C4F20500BD
:10483000007800F00700052805D0FFE79DF8170075
:10484000052835D1FFE701208DF81600FFE748F273
:104850001000C4F204000068C00708B1FFE708E0D8
:1048600045F6AD60C0F200004FF41071FCF7D2FDC8
:10487000FFE7FFE748F20001C4F204014FF6EE2023
:10488000CFF6FF70086048F20401C4F204014FF053
:10489000FF30086048F20801C4F20401086048F2E1
:1048A0000C01C4F2040108601E20FCF7B9FDFFE70B
:1048B0009DF8170044F22601C4F2050108701E207D
:1048C000FCF7AEFD9DF8160001281CD1FFE7049807
:1048D00048F20001C4F204010860039848F20401A0
:1048E000C4F204010860029848F20801C4F204010D
:1048F0000860019848F20C01C4F2040108601E200F
:10490000FCF78EFDFFE706B080BD000080B59AB0D1
:104910001990189140F27410C0F200200B90BA2048
:10492000C0F200100A905D20C0F2800009902020A3
:10493000C0F2400008904FF0FF300790FFE7199851
:104940004DF20001C4F20101884218D0FFE7199826
:104950004DF20041C4F20101884210D0FFE71998DE
:1049600041F20001C4F20201884208D0FFE7199821
:1049700041F20041C4F20201884201D1FFE708E0A0
:1049800046F2CA00C0F2000040F2F311FCF742FD0B
:10499000FFE7FFE71898006816901898406817908E
:1049A0001698002800F01681FFE71798002800F0FD
:1049B0001181FFE71998406900F460001590FFE746
:1049C0001598A0B1FFE71598B0F5001F0FD0FFE7CD
:1049D0001598B0F5C00F0AD0FFE71598B0F5200F75
:1049E00005D0FFE71598B0F5400F01D1FFE708E0CB
:1049F00046F2CA00C0F2000040F2F911FCF70AFDCD
:104A0000FFE7FFE71598410D08A830F81100159051
:104A100016981799159A51434900B0FBF1F00138E7
:104A20000F900F98FF287CD8FFE70F98189988609F
:104A3000169A1798159948434100B2FBF1F000FB14
:104A400011200E900E9828B9FFE7189900200861F0
:104A5000079065E015980F990131A0FB011C4FF0FC
:104A6000000343F1000200FB02C0179AA1FB021CE5
:104A700000FB02C0400040EAD1704900129113903F
:104A8000DDF848E01398000240EA1E61169A5FEADA
:104A9000530C4FEA320010EB0E2041EB0C01FBF7F8
:104AA0002BFC80380D900D987F2838D8FFE70D98A3
:104AB0001899C86012991398000240EA116009021F
:104AC0001291139016980D9980314FF000020692C2
:104AD00042F10002A0FB011300FB02301091119083
:104AE00010981199FBF758FC0490059112981399AE
:104AF000FBF752FC024604980B460599FBF7E8FCCD
:104B0000FBF756FC0021CBF68071FBF789FC0146D0
:104B100006980C910C99189A11610790FFE7FFE72E
:104B2000FFE707980130002853D1FFE7169800EB04
:104B3000800040001799159A51434900B0FBF1F0ED
:104B400005304CF6CD41CCF6CC41A0FB01014FF035
:104B5000FF3000EBD1000F900F98FF2838D8FFE707
:104B60000F981899886015980F990131A0FB0113CF
:104B70004FF00002039242F1000200FB0230179A4C
:104B8000A1FB021300FB0230400040EAD170490053
:104B9000129113901698FBF7F2FB01900291129874
:104BA0001399FBF7F9FB024601980B460299FBF7B4
:104BB0008FFCFBF7FDFB0021CBF68071FBF730FC8F
:104BC000014603980C910C99189A11610790FFE720
:104BD000FFE7FFE707981AB080BD000080B582B0FC
:104BE000009000980138B0F1807F03D3FFE70120E7
:104BF000019019E0009801384EF21401CEF2000144
:104C000008604FF0FF300F2101F0F4F84EF2180168
:104C1000CEF20001002008604EF21002CEF2000237
:104C2000072111600190FFE7019802B080BD0000EC
:104C300048F23440C1F6FF700068704780B500F05C
:104C400003F8BFF34F8F80BD48F23840C1F6FF70C4
:104C5000026848F23441C1F6FF71086810440860E8
:104C60007047000080B582B001904FF0FF30009097
:104C7000019838B3FFE70198B0F57A7F22D8FFE7B3
:104C800001994FF47A70B0FBF1F048F23841C1F667
:104C9000FF71086048F20400C1F6FF70006844F23A
:104CA0002001C4F205010968C1F30261C8400199FD
:104CB000B0FBF1F0FFF792FF18B9FFE7002000907A
:104CC000FFE7FFE7009802B080BD000086B040F229
:104CD0008460C4F201000068C00750B1FFE748F2E9
:104CE0000001C1F6FF7142F20040C0F2F40008601A
:104CF00009E048F20001C1F6FF7142F60050C0F22F
:104D000031100860FFE744F22600C4F20500007885
:104D100000F007008DF817009DF81700014600917C
:104D2000052867D80099DFE801F0030E18202A3221
:104D300048F20000C1F6FF70006848F20401C1F6B5
:104D4000FF71086057E048F20401C1F6FF7141F2BB
:104D50000020C0F27A0008604DE048F20401C1F67C
:104D6000FF714FF40040086045E048F20401C1F6CD
:104D7000FF7141F20020C0F27A0008603BE048F287
:104D80000401C1F6FF714FF40040086033E044F2C3
:104D90000010C4F205000168C1F308210491016804
:104DA000090F0391016801F01F01029100680006DC
:104DB000002806D4FFE741F20020C0F27A000190FB
:104DC00006E048F20000C1F6FF7000680190FFE7BE
:104DD000019802990131B0FBF1F004990131484387
:104DE00003990131B0FBF1F048F20401C1F6FF7103
:104DF000086000E0FFE706B07047000080B5FFF7ED
:104E000065FF4EF60851CEF200010020086080BD1B
:104E100080B58AB0ADF8260001210846FDF722FED4
:104E20004FF4A06004903020059000200690059873
:104E300020B9FFE70720ADF822001DE005981028F3
:104E400004D1FFE70520ADF8220014E005982028E2
:104E500008D0FFE70598302804D0FFE705984028E0
:104E600004D1FFE70320ADF8220003E00220ADF8F3
:104E70002200FFE7FFE7FFE7059801090120039003
:104E80008840ADF82400BDF82600BDF82410084481
:104E90000138B0FBF1F0BDF82210401AADF8200047
:104EA000BDF82000ADF81C0044F20000C4F202007E
:104EB00001900021029104AA00F0DCF80299039A03
:104EC000019800F06FF801980299039A00F002F837
:104ED0000AB080BD80B584B0039002918DF80720A0
:104EE000FFE7039844F20001C4F20201884208D0AF
:104EF000FFE7039844F20041C4F20201884201D165
:104F0000FFE708E046F28E00C0F2000040F21621F2
:104F1000FCF780FAFFE7FFE7FFE7029820B1FFE721
:104F20000298012801D1FFE708E046F28E00C0F2A6
:104F3000000040F21721FCF76DFAFFE7FFE7FFE7FB
:104F40009DF8070028B1FFE79DF80700012801D16F
:104F5000FFE708E046F28E00C0F200004FF4067151
:104F6000FCF758FAFFE7FFE79DF8070001280BD18F
:104F7000FFE7029801014FF4804000FA01F2039923
:104F80000869104308610AE0029801014FF480406B
:104F900000FA01F20399086990430861FFE704B041
:104FA00080BD000080B584B0039002918DF8072089
:104FB000FFE7039844F20001C4F20201884208D0DE
:104FC000FFE7039844F20041C4F20201884201D194
:104FD000FFE708E046F28E00C0F200004FF4F271E5
:104FE000FCF718FAFFE7FFE7FFE7029820B1FFE7B9
:104FF0000298012801D1FFE708E046F28E00C0F2D6
:10500000000040F2E511FCF705FAFFE7FFE7FFE7D4
:105010009DF8070028B1FFE79DF80700012801D19E
:10502000FFE708E046F28E00C0F200004FF4F37193
:10503000FCF7F0F9FFE7FFE79DF8070001280BD127
:10504000FFE7029801014FF4805000FA01F2039942
:105050000869104308610AE0029801014FF480508A
:1050600000FA01F20399086990430861FFE704B070
:1050700080BD000080B586B00590049103920020A9
:105080000090039820B9FFE76FF002000090D1E094
:10509000FFE7059844F20001C4F20201884208D0FB
:1050A000FFE7059844F20041C4F20201884201D1B1
:1050B000FFE707E046F28E00C0F20000C321FCF7D4
:1050C000A9F9FFE7FFE7FFE7049820B1FFE704989D
:1050D000012801D1FFE707E046F28E00C0F2000090
:1050E000C421FCF797F9FFE7FFE7FFE703980068A3
:1050F00090B1FFE703980068B0F5007F0CD0FFE7A0
:1051000003980068B0F5807F06D0FFE70398006839
:10511000B0F5A06F01D1FFE707E046F28E00C0F2C4
:105120000000C521FCF776F9FFE7FFE7FFE70398EA
:10513000406890B3FFE70398406810282DD0FFE740
:1051400003984068202828D0FFE70398406830285B
:1051500023D0FFE70398406840281ED0FFE703985C
:105160004068502819D0FFE703984068602814D0A1
:10517000FFE70398406870280FD0FFE70398406866
:1051800080280AD0FFE703984068902805D0FFE701
:1051900003984068A02801D1FFE707E046F28E009F
:1051A000C0F20000C621FCF735F9FFE7FFE7FFE793
:1051B0000398806838B1FFE70398806848F20201DD
:1051C000884201D1FFE707E046F28E00C0F20000FE
:1051D000C721FCF71FF9FFE7FFE70598049900EBEB
:1051E000810002900299002008600598049900EB64
:1051F0008100083001900398808901990860059822
:10520000006904990B0148F2F27101FA03F290432C
:10521000DDF80CC0DCF80010DCF804E0DCF808C0B5
:1052200041EA0E0141EA0C019940114008440599F8
:105230000861FFE7009806B080BD000080B582B02D
:1052400043F20040C4F20500009000221146FCF732
:1052500015F94DF20000C4F2010040210122019233
:1052600000F0BEF900980199FCF7A0FA02B080BDE9
:1052700010B598B017901691012007904FF0FF30AD
:105280000690FFE717984DF20001C4F20101884231
:1052900018D0FFE717984DF20041C4F2010188428F
:1052A00010D0FFE7179841F20001C4F202018842D2
:1052B00008D0FFE7179841F20041C4F2020188428A
:1052C00001D1FFE708E046F2CA00C0F200004FF447
:1052D000A771FCF79FF8FFE7FFE7169800681490A6
:1052E0001698406815901498002800F01281FFE786
:1052F0001598002800F00D81FFE71798C06880B26C
:10530000C00B139014981599139AC2F102025143DD
:10531000C900B0FBF1F001380B900B98FF2800F2A8
:105320009780FFE70B9816998860149A159813993F
:10533000C1F102014843C100B2FBF1F000FB1120B2
:105340000A900A9828B9FFE716990020086106908C
:105350007DE01398D0F1020C4FF0000262F10000E2
:105360000B994B1CACFB031442F1000E0CFB0E4CD2
:1053700000FB03C0159BA1FB031C00FB03C0C00086
:1053800040EA5170C9000E910F900E990F980002DB
:1053900040EA116009020E910F900E990F98149B2C
:1053A0005FEA52024FEA3303C9185041109111903D
:1053B000119848B1FFE710981199149A0023FAF751
:1053C0009BFF8038099006E010981499B0FBF1F02B
:1053D00080380990FFE709987F2834D8FFE70998BB
:1053E0001699C8600E980F99119110901498099908
:1053F00080314FF00002059242F10002A0FB011340
:1054000000FB02300C910D900C980D99FAF7C4FF37
:105410000390049110981199FAF7BEFF0246039881
:105420000B460499FBF754F8FAF7C2FF0021CBF6BC
:105430008071FAF7F5FF0146059808910899169AC8
:105440001161069002E000200790FFE7FFE7FFE709
:10545000079800285CD1FFE7149800EB800040001B
:105460001599139AC2F102025143C900B0FBF1F041
:1054700005304CF6CD41CCF6CC41A0FB01014FF0FC
:10548000FF3000EBD1000B900B98FF283FD8FFE7CF
:105490000B98169988601398D0F102034FF0000C16
:1054A000CDF808C06CF100000B994A1CA3FB021E4A
:1054B0004CF1000C03FB0CE300FB0230159AA1FB3E
:1054C000021300FB0230C00040EA5170C900109185
:1054D00011901498FAF753FF0090019110981199C8
:1054E000FAF75AFF024600980B460199FAF7F0FFC7
:1054F000FAF75EFF0021CBF68071FAF791FF0146C3
:10550000029808910899169A11610690FFE7FFE743
:10551000FFE7069818B010BD80B582B001900091E9
:10552000FFE701984DF20001C4F20101884218D052
:10553000FFE701984DF20041C4F20101884210D00A
:10554000FFE7019841F20001C4F20201884208D04D
:10555000FFE7019841F20041C4F20201884201D103
:10556000FFE708E046F2CA00C0F200004FF4806195
:10557000FBF750FFFFE7FFE7FFE7009850B1FFE7B9
:10558000009840F2EB11C0F201010843884201D1BA
:10559000FFE708E046F2CA00C0F2000040F2014115
:1055A000FBF738FFFFE7FFE79DF8000010F00B0F57
:1055B00009D0FFE7009800F00B020199C86840EAA3
:1055C0000240C860FFE79DF80100C00730B1FFE767
:1055D0000199C86840F48010C860FFE702B080BD40
:1055E00080B584B0039002918DF80720FFE70398FF
:1055F0004DF20001C4F20101884218D0FFE7039880
:105600004DF20041C4F20101884210D0FFE7039837
:1056100041F20001C4F20201884208D0FFE703987A
:1056200041F20041C4F20201884201D1FFE708E0E3
:1056300046F2CA00C0F2000040F2BB31FBF7EAFEBE
:10564000FFE7FFE7FFE79DF8070028B1FFE79DF8B8
:105650000700012801D1FFE708E046F2CA00C0F2C6
:1056600000004FF46F71FBF7D5FEFFE7FFE7FFE7A0
:10567000029838B1FFE7029840F0EF00EF2801D11F
:10568000FFE708E046F2CA00C0F2000040F2BD3178
:10569000FBF7C0FEFFE7FFE7BDF8080000900098A9
:1056A00090B1FFE79DF80700012806D1FFE7009AB7
:1056B0000399C8681043C86005E0009A0399C86858
:1056C0009043C860FFE7FFE704B080BD82B001905F
:1056D00048F20400C1F6FF70006844F22001C4F2F1
:1056E00005010968C1F30211C8400090009802B09A
:1056F0007047000080B584B00390FFE703984DF237
:105700000001C4F20101884218D0FFE703984DF26E
:105710000041C4F20101884210D0FFE7039841F232
:105720000001C4F20201884208D0FFE7039841F269
:105730000041C4F20201884201D1FFE708E046F2CD
:10574000CA00C0F2000040F24921FBF763FEFFE708
:10575000FFE70398FFF7BAFF02900398806900F013
:105760000300410001208840019002980199B0FB9C
:10577000F1F00090009804B080BD000080B582B0C8
:105780000190FFE701984DF20001C4F20101884247
:1057900018D0FFE701984DF20041C4F201018842A0
:1057A00010D0FFE7019841F20001C4F202018842E3
:1057B00008D0FFE7019841F20041C4F2020188429B
:1057C00001D1FFE708E046F2CA00C0F2000040F253
:1057D0007251FBF71FFEFFE7FFE70198C08802B098
:1057E00080BD000080B582B04DF20000C4F201001F
:1057F0000190FFF7C3FF01980B21FFF78DFE02B068
:1058000080BD000080B548F22C40C1F6FF700078E2
:10581000012817D0FFE748F22C41C1F6FF710120A3
:10582000087043F20000C4F205000021FCF744F9BF
:10583000C0F5FA7048F22E41C1F6FF710880FAF700
:10584000D3FDFFE744F20000C4F20200002100F0A3
:10585000ADF84DF20000C4F201004FF48071FFF783
:105860005BFE80BD80B58AB0099008910792FFE782
:10587000089808B1FFE708E046F2CA00C0F200004D
:1058800040F2A951FBF7C6FDFFE7FFE7FFE70998E4
:105890004DF20001C4F20101884218D0FFE70998D7
:1058A0004DF20041C4F20101884210D0FFE709988F
:1058B00041F20001C4F20201884208D0FFE70998D2
:1058C00041F20041C4F20201884201D1FFE708E041
:1058D00046F2CA00C0F2000040F2AA51FBF79AFD5E
:1058E000FFE7FFE7FFE70998C06810F00C0F01D150
:1058F000FFE708E046F2CA00C0F2000040F2AB51F8
:10590000FBF788FDFFE7FFE70998FFF7F3FE01903B
:105910000898029000200590FF2004900998C06824
:1059200000F080700690069898B9FFE709984069E2
:105930008006002806D4FFE7099801A9FFF798FC24
:10594000009005E0099801A9FEF7E0FF0090FFE74D
:1059500005E0099801A9FBF741FC0090FFE70098DA
:10596000C0B9FFE7099880684FF67F729043039BA8
:10597000049941EA03211140084409998860049878
:10598000FF2806D0FFE70999C86840F00050C860BA
:10599000FFE700E0FFE7079820B1FFE705980799C8
:1059A0000860FFE700980AB080BD000085B0049051
:1059B000039103980001009000994FF440708840D3
:1059C000029000994FF4007088400190049800699B
:1059D000029A904301991140084404990861009982
:1059E00040F201308840029000994FF48070884066
:1059F000019004980069029A90430199114008446B
:105A00000499086105B0704780B582B04DF200007E
:105A1000C4F20100482100220192FFF7E1FD019844
:105A200048F22D41C1F6FF71087002B080BD000040
:105A300080B588B00790069105926FF00200019042
:105A40000698002800F04681FFE7FFE707984DF22F
:105A50000001C4F20101884218D0FFE707984DF217
:105A60000041C4F20101884210D0FFE7079841F2DB
:105A70000001C4F20201884208D0FFE7079841F212
:105A80000041C4F20201884201D1FFE708E046F27A
:105A9000CA00C0F2000040F22D31FBF7BBFCFFE76B
:105AA000FFE7FFE706980068B0F5805F04D0FFE7E6
:105AB0000698006808B9FFE708E046F2CA00C0F29D
:105AC000000040F22E31FBF7A5FCFFE7FFE7FFE700
:105AD00006988068B0F5006F04D0FFE706988068EC
