:020000040000FA
:1000000030A5FF1F95020000CD020000CF020000C6
:10001000D1020000D3020000D50200000000000061
:10002000000000000000000000000000D7020000F7
:10003000D902000000000000DB020000DD02000029
:100040006D2300008123000095230000A9230000F8
:10005000BD230000D1230000E5230000F9230000A8
:100060000D24000021240000352400004924000054
:100070005D24000071240000852400009924000004
:10008000AD240000C1240000D5240000E9240000B4
:10009000FD24000011250000252500003925000061
:1000A0004D25000061250000752500008925000010
:1000B0009D250000B1250000C5250000D9250000C0
:1000C000ED250000052600001D2600003526000055
:1000D0004D260000652600007D26000095260000C4
:1000E000AD260000C5260000DD260000F526000034
:1000F0000D270000252700003D27000055270000A0
:100100006D270000852700009D270000B52700000F
:10011000CD270000E5270000FD270000152800007E
:100120002D280000452800005D28000075280000EB
:100130008D280000A5280000BD280000D52800005B
:10014000ED280000052900001D29000035290000C8
:100150004D290000652900007D2900009529000037
:10016000AD290000C5290000DD290000F5290000A7
:100170000D2A0000252A00003D2A0000552A000013
:100180006D2A0000852A00009D2A0000B52A000083
:10019000CD2A0000E52A0000FD2A0000152B0000F2
:1001A0002D2B0000452B00005D2B0000752B00005F
:1001B0008D2B0000A52B0000BD2B0000D52B0000CF
:1001C000ED2B0000052C00001D2C0000352C00003C
:1001D0004D2C0000652C00007D2C0000952C0000AB
:1001E000AD2C0000C52C0000DD2C0000F52C00001B
:1001F0000D2D0000252D00003D2D0000552D000087
:100200006D2D0000852D00009D2D0000B52D0000F6
:10021000CD2D0000E52D0000FD2D0000152E000065
:100220002D2E0000452E00005D2E0000752E0000D2
:100230008D2E0000A52E0000BD2E0000D52E000042
:10024000DF020000DF020000DF020000DF0200002A
:10025000DF020000DF020000DF020000DF0200001A
:10026000DF020000DF020000DF020000DF0200000A
:10027000DF020000DF020000DF020000DF020000FA
:10028000DFF80CD000F046FA00480047354800007F
:1002900030A5FF1F12484FF01F01016011484FF0B9
:1002A0007701016010484FF0770101600F484FF46B
:1002B000885101600B484FF0760101600A484FF009
:1002C000760101600A4880470A480047FEE7FEE7DA
:1002D000FEE7FEE7FEE7FEE7FEE7FEE7FEE7FEE7F6
:1002E00010080540040805400C08054000080540BA
:1002F000113C0000810200002DE9F05F054600205E
:1003000092469B4688460646814640241BE0284686
:1003100041464746224600F059F953465A46C01A0C
:10032000914110D311461846224600F040F92D1A8B
:1003300067EB01084F4622460120002100F037F903
:1003400017EB00094E41201EA4F10104DFDC4846F2
:1003500031462A464346BDE8F09F40EA01039B0729
:1003600003D009E008C9121F08C0042AFAD203E02A
:1003700011F8013B00F8013B521EF9D270470EB54F
:1003800040F2334102910021CDE900110A460B46AB
:1003900000F072F903B000BD0EB540F23342029294
:1003A0000022CDE90022134600F066F903B000BD3B
:1003B00001F0004330B421F0004150EA010206D0C0
:1003C0000A0DA2F56072C1F31301002A02DC30BCF1
:1003D00000207047440F44EAC104C100E01830BC5B
:1003E00000EBC25000F002B981B000900099C868DB
:1003F0000969401AB0FA80F0400901B070477047AF
:10040000BFFFDFFFFFFEFFFFFFFFFFFFFFFFFFFF5D
:10041000FFFFFFFFFFFFFFFFFFFFFFFFFFFFFFFFEC
:10042000F0B480EA0102D40F4200B2EB410F02D2D5
:100430000246084611464A0042D0C30DDDB2C1F360
:10044000C752AD1A202D35DAC1F3160141F400026E
:1004500004B15242C5F1200602FA06F12A411044C5
:10046000B3EBD05F23D0C4B1012DA0EBC35009DCA6
:10047000F0BC4FF0004202EAC352DBB200F50000CC
:1004800000F0BDB8400000F1807000EBC350A0F157
:10049000807040EAD170490009E0490841EAC07122
:1004A000A0EBC35000F50000400800EBC350F0BCC7
:1004B00000F09CB86142012202EB4101001BF6E70B
:1004C000F0BC704781F00041AAE780F00040A7E748
:1004D0002DE9F04D81EA030404F0004B21F00045C2
:1004E00014464FF0000A23F0004150EA050220D0E4
:1004F00054EA01021DD0C5F30A570246C5F313039F
:10050000C1F31300C1F30A5640F4801543F480137D
:10051000A7EB0608101BD64608F2FD3873EB050062
:1005200002D308F1010801E092185B41B8F1000F15
:1005300003DA00200146BDE8F08D00204FF4801161
:10054000064684460EE0171B73EB050705D3121B06
:1005500063EB050306434CEA010C49084FEA3000FF
:1005600092185B4150EA0107EDD152EA030012D024
:1005700082EA040083EA0501084305D0101BAB4161
:1005800006D20122002306E000224FF0004302E0E1
:100590006FF0010253101AEB06004CEB085110EB00
:1005A0000A0041EB0B01BDE8F04D00F056B8202ADF
:1005B00004DB203A00FA02F1002070479140C2F1BA
:1005C000200320FA03F3194390407047202A04DBEC
:1005D000203A21FA02F00021704721FA02F3D040BC
:1005E000C2F1200291400843194670470029A8BF74
:1005F0007047401C490008BF20F00100704710B44C
:10060000B0FA80FC00FA0CF050EA010404BF10BC00
:10061000704749B1CCF1200421FA04F411FA0CF12D
:1006200018BF012121430843A3EB0C01CB1D4FEA66
:1006300000614FEA102042BF002010BC704700EB61
:10064000C35010440029A4BF10BC7047401C49008F
:1006500008BF20F0010010BC704710B5141E73F1E4
:10066000000408DA401C41F1000192185B411A4372
:1006700001D120F0010010BD2DE9F04D92469B46BE
:1006800011B1B1FA81F202E0B0FA80F22032904664
:10069000FFF78DFF04460F4640EA0A0041EA0B01CE
:1006A00053465A46084313D0114653EA010019D065
:1006B000C8F140025046FFF789FF05460E465046F6
:1006C00059464246FFF773FF084305D0012004E076
:1006D00020463946BDE8F08D0020054346EAE07625
:1006E0002C4337430A986305E40AA0EB0800002274
:1006F000FD0A44EA47540A3002D500200146E9E7E2
:10070000010510196941DDE9084500196941BDE895
:10071000F04DA2E71CB50948009009480190054634
:10072000009C06E0E06840F0010394E80700984769
:100730001034AC42F6D3FFF7A7FD00004C4B00008D
:100740006C4B000080B58CB0052003900321012282
:10075000059201F023F90DF12B00049000F032FE18
:1007600008A8079000F068FC47F27770C0F2777035
:1007700042F21021C0F2110100F098FC0399049894
:10078000002206928DF82D2030238DF82C308DF824
:100790002B208DF82F1000F03BFD059B0699079844
:1007A00009919DF8242002F0E0028DF82420BDF884
:1007B000252002F47E423132ADF825209DF8272015
:1007C00063F31F128DF827209DF8272002F0F00216
:1007D00001328DF82720BDF8252063F31F32ADF8D4
:1007E00025208DF820109DF8241001F07F018DF850
:1007F000241000F045FAFFE7202000F0A1F90128BD
:1008000001D0FFE7F8E7042000220192114602F030
:100810005DFC0B2001220292114602F057FC502091
:1008200000F0EAFF4FF4404001F03EFC02F0EEFB26
:10083000052000F047FC029800F094FF019800F0BA
:1008400091FF029800F058FF0CB080BD80B548F2CF
:100850002C51C1F6FF71086840F400600860FFE7A2
:100860000120022101F0CCFA08B9FFE7F8E70220E5
:1008700001F028F880BD000080B586B001A801F025
:100880005DFC0220ADF8060000208DF81700FFE7A0
:100890009DF81700032815D8FFE79DF8172044F6A8
:1008A000CA10C0F2000000EB820110F82200498853
:1008B00001AA01F00DF9FFE79DF8170001308DF84E
:1008C0001700E5E706B080BD80B582B08DF807005F
:1008D00000208DF80600FFE79DF8060003281DD8CC
:1008E000FFE79DF807009DF80610C840C00770B1EB
:1008F000FFE79DF8062044F6CA10C0F2000000EBA6
:10090000820110F82200498801F07AFBFFE7FFE737
:100910009DF8060001308DF80600DDE702B080BDCD
:1009200081B000900098006901B0704781B00090DC
:1009300000980069B0FA80F0400901B070470000EB
:1009400084B00390029101926FF00200009003982E
:10095000B0B1FFE7029898B1FFE7019880B1FFE7D7
:100960000298039908600399002048600399886001
:100970000199039AD1600199039A11610090FFE7F0
:10098000009804B07047000080B586B004900391D1
:10099000029200200090049800285BD0FFE70398A3
:1009A000002857D0FFE70298002853D0FFE70498AB
:1009B00000F054F8009000980299884203D3FFE7B2
:1009C00002980090FFE70499009A8868C96810446B
:1009D000884209D8FFE70398049A11689268114485
:1009E000009AFFF7BAFC16E004988168C068401AC4
:1009F00001900398049A116892681144019AFFF7D4
:100A0000ACFC0398019B184404990968009AD21A17
:100A1000FFF7A3FCFFE7EFF3108072B60590009A92
:100A20000499086910440861009A04998868104480
:100A3000886004998868C968884209D3FFE70499E7
:100A40008B68CA68B3FBF2F000FB12308860FFE7E6
:100A500062B6FFE7009806B080BD000081B000904C
:100A60000099C8680969401A01B0704780B586B01E
:100A700004900391029200200090049800285BD01B
:100A8000FFE70398002857D0FFE70298002853D0CB
:100A9000FFE70498FFF744FF00900298009988420E
:100AA00003D8FFE702980090FFE70499009A48688E
:100AB000C9681044884209D8FFE704990868496862
:100AC00008440399009AFFF748FC16E0049841682F
:100AD000C068401A0190049908684968084403995D
:100AE000019AFFF73AFC049800680399019B1944A6
:100AF000009AD21AFFF731FCFFE7EFF3108072B6CD
:100B00000590009A04990869801A0861009A04996E
:100B100048681044486004994868C968884209D305
:100B2000FFE704994B68CA68B3FBF2F000FB123090
:100B30004860FFE762B6FFE7009806B080BD00009E
:100B400080B582B08DF80700FFE79DF8070040B13F
:100B5000FFE79DF8070040F06900692801D1FFE731
:100B600008E044F6E010C0F2000040F28B5100F0C3
:100B700063FDFFE7FFE744F23C00C4F205000078A4
:100B80009DF807100840C0B2002818BF012002B02D
:100B900080BD000080B582B08DF807000020009075
:100BA000FFE79DF8070028B1FFE79DF8070001283F
:100BB00001D1FFE708E044F6E010C0F2000040F287
:100BC000E54100F039FDFFE7FFE7FFE744F2FE30C3
:100BD000C4F205000088C00708B1FFE708E044F64A
:100BE000E010C0F2000040F2E64100F025FDFFE712
:100BF000FFE79DF80700B0B9FFE744F22600C4F212
:100C00000500007800F00700052804D1FFE76FF029
:100C10000500009006E044F22A01C4F2050101201B
:100C20000870FFE729E044F20010C4F205000068F4
:100C3000C1B20020B0EBD11F07D1FFE708204FF46D
:100C4000805100F04BFA009006E001204FF48051F3
:100C500000F044FA0090FFE7009868B9FFE744F21B
:100C60002A01C4F205010020087020204FF48051B1
:100C700000F034FA0090FFE7FFE7009802B080BD73
:100C800080B586B00590059820B9FFE76FF00200A7
:100C90000490CDE1FFE7059801790020B0EBD11F6A
:100CA00007D0FFE7059801790120B0EBD11F01D1F2
:100CB000FFE708E044F6E010C0F200004FF497614F
:100CC00000F0BAFCFFE7FFE7FFE70598007900F0C6
:100CD0001F000130182808D8FFE70598007900F0B8
:100CE0001F00013008B1FFE708E044F6E010C0F251
:100CF000000040F2B94100F09FFCFFE7FFE7FFE78B
:100D00000598B0F805006FF35F200130B0F5F07F73
:100D10000AD8FFE70598B0F805006FF35F200130AF
:100D2000142801D3FFE708E044F6E010C0F2000009
:100D300040F2BA4100F080FCFFE7FFE7FFE70598CB
:100D4000C179012000EB1110102809D8FFE70598A0
:100D5000C179012000EB1110022801D3FFE708E060
:100D600044F6E010C0F2000040F2BB4100F064FC29
:100D7000FFE7FFE7059801790020B0EBD11F06D10E
:100D8000FFE741F20020C0F27A00019006E048F24D
:100D90000000C1F6FF7000680190FFE70198059917
:100DA000097901F01F010131B0FBF1F003900398C4
:100DB0000599B1F805106FF35F21013148430290A6
:100DC000FFE7039847F64001C0F27D11884209D839
:100DD000FFE7039844F24021C0F20F01884201D39B
:100DE000FFE708E044F6E010C0F200004FF498611D
:100DF00000F022FCFFE7FFE7FFE7029843F600015F
:100E0000C1F69C41884209D8FFE7029841F60041AB
:100E1000C0F64E61884201D3FFE708E044F6E010D7
:100E2000C0F2000040F2C14100F006FCFFE7FFE71E
:100E3000FFE702980599CA79012101EB1211B0FB75
:100E4000F1F04CF20021C0F6EB31884210D8FFE7F8
:100E500002980599CA79012101EB1211B0FBF1F05A
:100E60004EF2C011C0F2E401884201D3FFE708E06E
:100E700044F6E010C0F2000040F2C24100F0DCFB9A
:100E8000FFE7FFE7FFE70598C07900F00F000130AA
:100E9000102809D8FFE70598C07900F00F0001304D
:100EA000022801D3FFE708E044F6E010C0F200009A
:100EB00040F2C34100F0C0FBFFE7FFE7FFE7059802
:100EC000B0F80510012000EB113010280AD8FFE718
:100ED0000598B0F80510012000EB1130022801D36D
:100EE000FFE708E044F6E010C0F2000040F2C44121
:100EF00000F0A2FBFFE7FFE7FFE702980599B1F8D2
:100F00000520012101EB1231B0FBF1F04CF2002180
:100F1000C0F6EB31884211D8FFE702980599B1F885
:100F20000520012101EB1231B0FBF1F04EF2C011AE
:100F3000C0F2E401884201D3FFE708E044F6E01084
:100F4000C0F2000040F2C54100F076FBFFE7FFE78A
:100F5000FFE702980599C97901F00F010131B0FB53
:100F6000F1F04CF20021C0F6EB31884210D8FFE7D7
:100F700002980599C97901F00F010131B0FBF1F038
:100F80004EF2C011C0F2E401884201D3FFE708E04D
:100F900044F6E010C0F2000040F2C64100F04CFB05
:100FA000FFE7FFE7FFE705980078012804D0FFE797
:100FB0000598007808B9FFE708E044F6E010C0F2B1
:100FC00000004FF4996100F037FBFFE7FFE7FFE710
:100FD00044F2FE30C4F205000088C00708B1FFE704
:100FE00008E044F6E010C0F2000040F2C94100F011
:100FF00023FBFFE7FFE744F20011C4F20501086894
:10100000059A1279D20962F3C71008600598406802
:1010100008600598007828B9FFE70120FFF7BAFDBE
:10102000049004E00020FFF7B5FD0490FFE7FFE720
:10103000049806B080BD000082B0019000200090AE
:10104000019820B9FFE76FF0020000902AE00199B3
:10105000002048600199087900F07F00087101992B
:10106000087900F0E00008710199B1F8050000F47A
:101070007E401330A1F80500019AD179012060F378
:101080001F11D171019AD17901F0F0010131D171B3
:10109000019AB2F8051060F31F31A2F8051001990A
:1010A0000870FFE7009802B07047000080B582B07A
:1010B000019000910198009902F090F802F010FD63
:1010C00002B080BD80B582B08DF807009DF80700A2
:1010D00002F0D0FA02F004FD02B080BD80B584B009
:1010E0008DF80F000291002001906FF00700009032
:1010F000FFE70198029988420ED8FFE79DF80F009C
:10110000FFF71EFD012803D1FFE70020009003E058
:10111000019801300190ECE7009804B080BD000018
:1011200080B582B08DF8070000200090FFE79DF8A1
:10113000070028B1FFE79DF80700012801D1FFE76C
:1011400008E044F6E010C0F200004FF4677100F0D0
:1011500073FAFFE7FFE7FFE744F2FE30C4F2050051
:101160000088C00708B1FFE708E044F6E010C0F2CD
:10117000000040F29D3100F05FFAFFE7FFE79DF8C5
:101180000700A8BBFFE744F22600C4F20500007880
:1011900000F00700032804D1FFE76FF0050000907E
:1011A00025E044F20010C4F205000068C1B200203E
:1011B000B0EBD11F13D1FFE744F22A00C4F20500BF
:1011C000007820B9FFE76FF00500009006E044F2D8
:1011D0003201C4F2050101200870FFE706E044F285
:1011E0003201C4F2050101200870FFE7FFE70CE0BF
:1011F00044F23201C4F205010020087008204FF4C7
:101200008051FFF76BFF0090FFE7009802B080BDB0
:1012100080B582B00190019820B9FFE76FF002001D
:101220000090CBE0FFE701980078012804D0FFE7A9
:101230000198007808B9FFE708E044F6E010C0F232
:1012400000004FF45F7100F0F7F9FFE7FFE7FFE7F9
:101250000198407878B1FFE70198407810280AD0CB
:10126000FFE701984078202805D0FFE701984078F3
:10127000302801D1FFE708E044F6E010C0F200009A
:1012800040F27D3100F0D8F9FFE7FFE7FFE7019872
:10129000807828B1FFE701988078402801D1FFE7E6
:1012A00008E044F6E010C0F2000040F27E3100F0A9
:1012B000C3F9FFE7FFE7FFE70198C078802804D073
:1012C000FFE70198C07808B9FFE708E044F6E010AE
:1012D000C0F2000040F27F3100F0AEF9FFE7FFE717
:1012E000FFE701980079012828D0FFE701980079ED
:1012F000022823D0FFE70198007903281ED0FFE7DA
:1013000001980079042819D0FFE701980079052891
:1013100014D0FFE70198007906280FD0FFE7019865
:10132000007907280AD0FFE701980079082805D03E
:10133000FFE701980079092801D1FFE708E044F6AA
:10134000E010C0F200004FF4607100F075F9FFE7A3
:10135000FFE7FFE744F2FE30C4F205000088C00753
:1013600008B1FFE708E044F6E010C0F2000040F2E8
:10137000813100F061F9FFE7FFE70198007944F25D
:10138000A201C4F205010870019842788178C07802
:101390001043084344F21041C4F20501087001985B
:1013A000007828B9FFE70120FFF7BAFE009004E0BB
:1013B0000020FFF7B5FE0090FFE7FFE7009802B0BE
:1013C00080BD000082B0019000200090019820B9FB
:1013D000FFE76FF0020000900EE001990120087015
:1013E0000199002088700199487001998020C87087
:1013F000019905200871FFE7009802B070470000CE
:1014000080B594B013901291012007904FF0FF30F7
:101410000690FFE713984DF20001C4F201018842E3
:1014200018D0FFE713984DF20041C4F20101884241
:1014300010D0FFE7139841F20001C4F20201884284
:1014400008D0FFE7139841F20041C4F2020188423C
:1014500001D1FFE708E044F61D30C0F2000040F281
:10146000A51100F0E9F8FFE7FFE712980068109077
:101470001298406811901098002800F0DA80FFE779
:101480001198002800F0D580FFE710981199890085
:10149000B0FBF1F001380B900B98FF2878D8FFE7EC
:1014A0000B9812998860109A11988100B2FBF1F0A4
:1014B00000FB11200A900A9828B9FFE71299002032
:1014C0000861069063E00B98411C4FF0000343F164
:1014D0000000119AA1FB021C00FB02C0800040EA40
:1014E000917089000E910F90DDF838E00F9800029E
:1014F00040EA1E61109A5FEA530C4FEA320010EB8B
:101500000E2041EB0C01FEF7F7FE80380990099898
:101510007F2838D8FFE709981299C8600E990F986C
:10152000000240EA116009020E910F90109809998B
:1015300080314FF00002059242F10002A0FB01133E
:1015400000FB02300C910D900C980D99FEF724FFD2
:10155000039004910E980F99FEF71EFF0246039820
:101560000B460499FEF7B4FFFEF722FF0021CBF6ED
:101570008071FEF755FF0146059808910899129A67
:101580001161069002E000200790FFE7FFE7FFE708
:10159000079800284CD1FFE7109800EB800040002E
:1015A00011998900B0FBF1F005304CF6CD41CCF635
:1015B000CC41A0FB01014FF0FF3000EBD1000B90BC
:1015C0000B98FF2833D8FFE70B98129988600B9887
:1015D000411C4FF00000029040F10000119AA1FB65
:1015E000021300FB0230800040EA917089000E91E6
:1015F0000F901098FEF7C3FE009001910E980F997E
:10160000FEF7CAFE024600980B460199FEF760FFFE
:10161000FEF7CEFE0021CBF68071FEF701FF0146FA
:10162000029808910899129A11610690FFE7FFE766
:10163000FFE7069814B080BD82B001900091FFE7EB
:10164000FEE7000083B0029048F20400C1F6FF708C
:10165000006844F22001C4F205010968C1F3026187
:10166000C84041F26F71084441F6F111C0F2765161
:10167000A0FB0110C0090090FFE70298411E0291F3
:1016800050B1FFE700980190FFE70198411E0191DA
:1016900008B1FFE7F9E7F0E703B0704783B00290C5
:1016A00048F20400C1F6FF70006844F22001C4F261
:1016B00005010968C1F30261C84048F67F51C0F2D4
:1016C0005B01084449F68171C1F25E61A0FB011023
:1016D000C00C0090FFE70298411E029150B1FFE755
:1016E00000980190FFE70198411E019108B1FFE7C2
:1016F000F9E7F0E703B0704780B582B08DF80700D6
:10170000FFE79DF8070028B1FFE79DF807000128D3
:1017100001D1FFE708E044F60C20C0F2000040F2DF
:101720007111FFF789FFFFE7FFE7FFE740F2004095
:10173000C4F201000068012801D1FFE708E044F687
:101740000C20C0F200004FF4B971FFF775FFFFE7FE
:10175000FFE79DF8070048F24011C4F2202108601D
:1017600002B080BD80B582B08DF80700FFE79DF81C
:10177000070028B1FFE79DF80700012801D1FFE726
:1017800008E044F60C20C0F2000040F26311FFF7BD
:1017900053FFFFE7FFE7FFE740F20040C4F201001C
:1017A0000068012801D1FFE708E044F60C20C0F2F0
:1017B00000004FF4B271FFF73FFFFFE7FFE79DF82E
:1017C000070048F26011C4F22021086002B080BD19
:1017D00040F20041C4F2010100200860704700009F
:1017E00040F20041C4F2010140F22310086043F2CC
:1017F000102008607047000080B584B0029000207F
:101800000190FFE740F20040C4F2010000680128A7
:1018100001D1FFE708E044F60C20C0F2000040F2DE
:101820004F11FFF709FFFFE7FFE7FFE70298F028F6
:1018300001D8FFE708E044F60C20C0F200004FF4A6
:10184000A871FFF7F9FEFFE7FFE740F20841C4F295
:1018500001010868029A120962F307100860FFE7A5
:10186000029840F20841C4F20101096801F0F00158
:10187000884220D0FFE7019801300190019848F29A
:101880000401C1F6FF71096844F22002C4F20502A6
:101890001268C2F30262D14041F25972CDF2B7121E
:1018A000A1FB0221B0EB913F04D9FFE76FF00700E5
:1018B000039003E0D4E700200390FFE7039804B00F
:1018C00080BD000080B582B00190FFE7019840B173
:1018D000FFE701984FF6FF710843884201D1FFE707
:1018E00008E044F69120C0F2000040F20F21FFF71B
:1018F000A3FEFFE7FFE7019841F25801C4F205019A
:10190000086002B080BD000080B582B001908DF803
:101910000310FFE7019850B1FFE701984FF67951A6
:10192000C0F60F710843884201D1FFE707E044F693
:101930003820C0F200008421FFF77EFEFFE7FFE7BA
:10194000FFE79DF8030028B1FFE79DF80300012899
:1019500001D1FFE707E044F63820C0F200008521FE
:10196000FFF76AFEFFE7FFE79DF80300012809D1B2
:10197000FFE7019A48F20401C4F2040108689043A9
:10198000086008E0019A48F20401C4F20401086802
:1019900010430860FFE702B080BD000080B584B04E
:1019A0008DF80F00ADF80C108DF80B20FFE743F613
:1019B000FC30C4F205000088C00708B1FFE708E06A
:1019C00044F66420C0F2000040F28121FFF734FEAB
:1019D000FFE7FFE7FFE79DF80F00C8B1FFE79DF8BD
:1019E0000F00012814D0FFE79DF80F0002280FD048
:1019F000FFE79DF80F0003280AD0FFE79DF80F00CE
:101A0000042805D0FFE79DF80F00052801D1FFE766
:101A100008E044F66420C0F2000040F28221FFF7A3
:101A20000BFEFFE7FFE7FFE7BDF80C0028B1FFE77B
:101A3000BDF80C0008B1FFE708E044F66420C0F2EE
:101A4000000040F28321FFF7F7FDFFE7FFE70020EA
:101A50008DF80300FFE79DF803000F2835D8FFE756
:101A6000BDF80C00C007F8B1FFE79DF80F0080013A
:101A70009DF8031000EB810043F60041C4F205011C
:101A8000084401909DF80B00012806D1FFE7019959
:101A9000088840F40040088005E0019908886FF349
:101AA000DF300880FFE7FFE7BDF80C004008ADF825
:101AB0000C00BDF80C0008B9FFE706E0FFE79DF851
:101AC000030001308DF80300C5E704B080BD0000BD
:101AD00080B588B08DF81F00ADF81C10069200206C
:101AE0000390069820B9FFE76FF00200039073E1BE
:101AF000FFE743F6FC30C4F205000088C00708B1D8
:101B0000FFE708E044F66420C0F200004FF4807163
:101B1000FFF792FDFFE7FFE7FFE79DF81F00C8B161
:101B2000FFE79DF81F00012814D0FFE79DF81F0074
:101B300002280FD0FFE79DF81F0003280AD0FFE717
:101B40009DF81F00042805D0FFE79DF81F00052819
:101B500001D1FFE708E044F66420C0F2000040F243
:101B60000111FFF769FDFFE7FFE7FFE7BDF81C0084
:101B700028B1FFE7BDF81C0008B1FFE708E044F614
:101B80006420C0F200004FF48171FFF755FDFFE7BC
:101B9000FFE7FFE70698008828B1FFE7069800886E
:101BA000012801D1FFE708E044F66420C0F20000FC
:101BB00040F20311FFF740FDFFE7FFE7FFE706985C
:101BC000408828B1FFE706984088022801D1FFE746
:101BD00008E044F66420C0F200004FF48271FFF781
:101BE0002BFDFFE7FFE7FFE70698808828B1FFE7B6
:101BF00006988088042801D1FFE708E044F66420B5
:101C0000C0F2000040F20511FFF716FDFFE7FFE705
:101C1000FFE70698C08850B1FFE70698C0881028F3
:101C200005D0FFE70698C088202801D1FFE708E02B
:101C300044F66420C0F200004FF48371FFF7FCFC0F
:101C4000FFE7FFE7FFE70698008930B1FFE7069856
:101C50000089B0F5804F01D1FFE708E044F6642029
:101C6000C0F2000040F20711FFF7E6FCFFE7FFE7D4
:101C7000FFE70698408928B1FFE706984089402889
:101C800001D1FFE708E044F66420C0F200004FF401
:101C90008471FFF7D1FCFFE7FFE7FFE70698808933
:101CA00030B1FFE706988089B0F5007F01D1FFE7EA
:101CB00008E044F66420C0F2000040F20911FFF78A
:101CC000BBFCFFE7FFE7FFE70698C08930B1FFE7FD
:101CD0000698C089B0F5805F01D1FFE708E044F6BF
:101CE0006420C0F200004FF48571FFF7A5FCFFE708
:101CF000FFE7FFE70698008A30B1FFE70698008A01
:101D0000B0F5004F01D1FFE708E044F66420C0F2CF
:101D1000000040F20B11FFF78FFCFFE7FFE7002008
:101D20008DF81700FFE79DF817000F2853D8FFE73D
:101D3000BDF81C00C007E8B3FFE7069901910888C9
:101D40004A8810438A881043CA8810434A8910433E
:101D50008A891043CA89104309890843ADF81400E1
:101D600045F27720ADF812000698018ABDF81400FC
:101D70000843ADF81400BDF8120040F40040ADF87F
:101D800012009DF81F0080019DF8171000EB8100E4
:101D900043F60041C4F2050108440290029800880D
:101DA000BDF812209043BDF8141011400844029968
:101DB0000880FFE7BDF81C004008ADF81C00BDF826
:101DC0001C0008B9FFE706E0FFE79DF817000130A7
:101DD0008DF81700A7E7FFE7039808B080BD000063
:101DE00043F6FC31C4F205014FF4254008807047EA
:101DF00043F6FC31C4F205014AF2015008807047F5
:101E000080B582B08DF80700ADF80410FFE79DF8AB
:101E10000700C8B1FFE79DF80700012814D0FFE7CD
:101E20009DF8070002280FD0FFE79DF80700032860
:101E30000AD0FFE79DF80700042805D0FFE79DF8CA
:101E40000700052801D1FFE708E044F66420C0F24E
:101E500000004FF4FF71FFF7EFFBFFE7FFE7FFE73D
:101E6000BDF8040028B1FFE7BDF8040008B1FFE7A2
:101E700008E044F66420C0F2000040F2FF11FFF7D2
:101E8000DBFBFFE7FFE79DF80700010143F60000D9
:101E9000C4F20500405ABDF80410084080B2002882
:101EA00018BF012002B080BD80B584B08DF80F004E
:101EB000ADF80C10ADF80A20FFE79DF80F00C8B18F
:101EC000FFE79DF80F00012814D0FFE79DF80F00F1
:101ED00002280FD0FFE79DF80F0003280AD0FFE784
:101EE0009DF80F00042805D0FFE79DF80F00052896
:101EF00001D1FFE708E044F66420C0F200004FF48F
:101F0000BE71FFF799FBFFE7FFE7FFE7BDF80C00A5
:101F100028B1FFE7BDF80C0008B1FFE708E044F680
:101F20006420C0F2000040F27D11FFF785FBFFE75F
:101F3000FFE7FFE7BDF80A0010280AD3FFE7BDF866
:101F40000A00202806D3FFE7BDF80A003B2801D885
:101F5000FFE708E044F66420C0F200004FF4BF71D0
:101F6000FFF76AFBFFE7FFE7FFE743F6FC30C4F249
:101F700005000088C00708B1FFE708E044F66420C8
:101F8000C0F2000040F27F11FFF756FBFFE7FFE7CA
:101F900000208DF80900FFE79DF809000F282CD8D4
:101FA000FFE7BDF80C00C007B0B1FFE79DF80F00D8
:101FB00080019DF8091000EB810043F60241C4F254
:101FC00005010844019001980088BDF80A1061F3EA
:101FD000050001990880FFE7BDF80C004008ADF846
:101FE0000C00BDF80C0008B9FFE706E0FFE79DF81C
:101FF000090001308DF80900CEE704B080BD000073
:1020000080B582B08DF80700ADF80410FFE79DF8A9
:102010000700C8B1FFE79DF80700012814D0FFE7CB
:102020009DF8070002280FD0FFE79DF8070003285E
:102030000AD0FFE79DF80700042805D0FFE79DF8C8
:102040000700052801D1FFE708E044F66420C0F24C
:1020500000004FF40E71FFF7EFFAFFE7FFE7FFE72D
:10206000BDF8040028B1FFE7BDF8040008B1FFE7A0
:1020700008E044F66420C0F2000040F23921FFF786
:10208000DBFAFFE7FFE79DF8071043F60800C4F20C
:10209000050000EB01100090BDF8042000990888AD
:1020A0001043088002B080BD80B582B0ADF8060054
:1020B000FFE7BDF8060090B1FFE7BDF80600B0F5F8
:1020C000804F0CD0FFE7BDF80600B0F5004F06D0FA
:1020D000FFE7BDF80600B0F5404F01D1FFE708E08B
:1020E00044F66420C0F200004FF4ED71FFF7A4FA4B
:1020F000FFE7FFE7FFE743F6FC30C4F20500008886
:10210000C00708B1FFE708E044F66420C0F2000011
:1021100040F2DB11FFF790FAFFE7FFE743F6F831F3
:10212000C4F2050108886FF39F30BDF8062002F461
:1021300040421044088002B080BD000083B002908D
:1021400000200190029820B9FFE76FF00200019093
:1021500014E00299002000900880029948800299BA
:10216000C8800299088202990881029948810299DF
:1021700088810299C88102998880FFE7019803B09D
:102180007047000080B582B08DF80700ADF80410EC
:10219000FFE79DF80700C8B1FFE79DF80700012899
:1021A00014D0FFE79DF8070002280FD0FFE79DF845
:1021B000070003280AD0FFE79DF80700042805D090
:1021C000FFE79DF80700052801D1FFE708E044F686
:1021D0006420C0F2000040F26D21FFF72DFAFFE706
:1021E000FFE7FFE7BDF8040028B1FFE7BDF80400F2
:1021F00008B1FFE708E044F66420C0F2000040F2B6
:102200006E21FFF719FAFFE7FFE79DF8071043F685
:102210000C00C4F2050000EB01100090BDF8042092
:10222000009908881043088002B080BD80B582B054
:10223000019000910198A0B1FFE7019800F014F817
:102240000198B0F9020002F0A3FA0198B0F9020077
:10225000009902F0CDFA0198B0F9020002F0B0FA4C
:10226000FFE702B080BD000080B584B0039000207D
:102270000190039820B9FFE76FF00200019071E030
:10228000FFE703980088B0F5007F01DAFFE707E079
:1022900044F69120C0F20000CD21FFF7CDF9FFE711
:1022A000FFE703990888400900EB4002202000EB7B
:1022B0004200B1F9021088420DD8FFE7039908885F
:1022C000400900EB4002252000EB4200B1F902106A
:1022D00088420AD2FFE70398B0F90200202804D30D
:1022E000FFE76FF0020001903BE00398B0F90210A5
:1022F00041F25C00C4F2050000EB810002900298FC
:1023000000686FF35F2040F2FF1188420FD1FFE7B2
:10231000039800880299086003994868B1F902207F
:1023200048F21001C1F6FF7141F8220018E003984D
:102330000088029909686FF35F2188420BD1FFE79B
:1023400003994868B1F9022048F21001C1F6FF7103
:1023500041F8220003E06FF001000190FFE7FFE782
:10236000FFE7FFE7019804B080BD000080B548F2A8
:102370001000C1F6FF7000688047BFF34F8F80BD2B
:1023800080B548F21000C1F6FF7040688047BFF387
:102390004F8F80BD80B548F21000C1F6FF70806895
:1023A0008047BFF34F8F80BD80B548F21000C1F663
:1023B000FF70C0688047BFF34F8F80BD80B548F283
:1023C0001000C1F6FF7000698047BFF34F8F80BDDA
:1023D00080B548F21000C1F6FF7040698047BFF336
:1023E0004F8F80BD80B548F21000C1F6FF70806944
:1023F0008047BFF34F8F80BD80B548F21000C1F613
:10240000FF70C0698047BFF34F8F80BD80B548F231
:102410001000C1F6FF70006A8047BFF34F8F80BD88
:1024200080B548F21000C1F6FF70406A8047BFF3E4
:102430004F8F80BD80B548F21000C1F6FF70806AF2
:102440008047BFF34F8F80BD80B548F21000C1F6C2
:10245000FF70C06A8047BFF34F8F80BD80B548F2E0
:102460001000C1F6FF70006B8047BFF34F8F80BD37
:1024700080B548F21000C1F6FF70406B8047BFF393
:102480004F8F80BD80B548F21000C1F6FF70806BA1
:102490008047BFF34F8F80BD80B548F21000C1F672
:1024A000FF70C06B8047BFF34F8F80BD80B548F28F
:1024B0001000C1F6FF70006C8047BFF34F8F80BDE6
:1024C00080B548F21000C1F6FF70406C8047BFF342
:1024D0004F8F80BD80B548F21000C1F6FF70806C50
:1024E0008047BFF34F8F80BD80B548F21000C1F622
:1024F000FF70C06C8047BFF34F8F80BD80B548F23E
:102500001000C1F6FF70006D8047BFF34F8F80BD94
:1025100080B548F21000C1F6FF70406D8047BFF3F0
:102520004F8F80BD80B548F21000C1F6FF70806DFE
:102530008047BFF34F8F80BD80B548F21000C1F6D1
:10254000FF70C06D8047BFF34F8F80BD80B548F2EC
:102550001000C1F6FF70006E8047BFF34F8F80BD43
:1025600080B548F21000C1F6FF70406E8047BFF39F
:102570004F8F80BD80B548F21000C1F6FF70806EAD
:102580008047BFF34F8F80BD80B548F21000C1F681
:10259000FF70C06E8047BFF34F8F80BD80B548F29B
:1025A0001000C1F6FF70006F8047BFF34F8F80BDF2
:1025B00080B548F21000C1F6FF70406F8047BFF34E
:1025C0004F8F80BD80B548F21000C1F6FF70806F5C
:1025D0008047BFF34F8F80BD80B548F21000C1F631
:1025E000FF70C06F8047BFF34F8F80BD80B548F24A
:1025F0001000C1F6FF70D0F880008047BFF34F8F06
:1026000080BD000080B548F21000C1F6FF70D0F820
:1026100084008047BFF34F8F80BD000080B548F233
:102620001000C1F6FF70D0F888008047BFF34F8FCD
:1026300080BD000080B548F21000C1F6FF70D0F8F0
:102640008C008047BFF34F8F80BD000080B548F2FB
:102650001000C1F6FF70D0F890008047BFF34F8F95
:1026600080BD000080B548F21000C1F6FF70D0F8C0
:1026700094008047BFF34F8F80BD000080B548F2C3
:102680001000C1F6FF70D0F898008047BFF34F8F5D
:1026900080BD000080B548F21000C1F6FF70D0F890
:1026A0009C008047BFF34F8F80BD000080B548F28B
:1026B0001000C1F6FF70D0F8A0008047BFF34F8F25
:1026C00080BD000080B548F21000C1F6FF70D0F860
:1026D000A4008047BFF34F8F80BD000080B548F253
:1026E0001000C1F6FF70D0F8A8008047BFF34F8FED
:1026F00080BD000080B548F21000C1F6FF70D0F830
:10270000AC008047BFF34F8F80BD000080B548F21A
:102710001000C1F6FF70D0F8B0008047BFF34F8FB4
:1027200080BD000080B548F21000C1F6FF70D0F8FF
:10273000B4008047BFF34F8F80BD000080B548F2E2
:102740001000C1F6FF70D0F8B8008047BFF34F8F7C
:1027500080BD000080B548F21000C1F6FF70D0F8CF
:10276000BC008047BFF34F8F80BD000080B548F2AA
:102770001000C1F6FF70D0F8C0008047BFF34F8F44
:1027800080BD000080B548F21000C1F6FF70D0F89F
:10279000C4008047BFF34F8F80BD000080B548F272
:1027A0001000C1F6FF70D0F8C8008047BFF34F8F0C
:1027B00080BD000080B548F21000C1F6FF70D0F86F
:1027C000CC008047BFF34F8F80BD000080B548F23A
:1027D0001000C1F6FF70D0F8D0008047BFF34F8FD4
:1027E00080BD000080B548F21000C1F6FF70D0F83F
:1027F000D4008047BFF34F8F80BD000080B548F202
:102800001000C1F6FF70D0F8D8008047BFF34F8F9B
:1028100080BD000080B548F21000C1F6FF70D0F80E
:10282000DC008047BFF34F8F80BD000080B548F2C9
:102830001000C1F6FF70D0F8E0008047BFF34F8F63
:1028400080BD000080B548F21000C1F6FF70D0F8DE
:10285000E4008047BFF34F8F80BD000080B548F291
:102860001000C1F6FF70D0F8E8008047BFF34F8F2B
:1028700080BD000080B548F21000C1F6FF70D0F8AE
:10288000EC008047BFF34F8F80BD000080B548F259
:102890001000C1F6FF70D0F8F0008047BFF34F8FF3
:1028A00080BD000080B548F21000C1F6FF70D0F87E
:1028B000F4008047BFF34F8F80BD000080B548F221
:1028C0001000C1F6FF70D0F8F8008047BFF34F8FBB
:1028D00080BD000080B548F21000C1F6FF70D0F84E
:1028E000FC008047BFF34F8F80BD000080B548F2E9
:1028F0001000C1F6FF70D0F800018047BFF34F8F82
:1029000080BD000080B548F21000C1F6FF70D0F81D
:1029100004018047BFF34F8F80BD000080B548F2AF
:102920001000C1F6FF70D0F808018047BFF34F8F49
:1029300080BD000080B548F21000C1F6FF70D0F8ED
:102940000C018047BFF34F8F80BD000080B548F277
:102950001000C1F6FF70D0F810018047BFF34F8F11
:1029600080BD000080B548F21000C1F6FF70D0F8BD
:1029700014018047BFF34F8F80BD000080B548F23F
:102980001000C1F6FF70D0F818018047BFF34F8FD9
:1029900080BD000080B548F21000C1F6FF70D0F88D
:1029A0001C018047BFF34F8F80BD000080B548F207
:1029B0001000C1F6FF70D0F820018047BFF34F8FA1
:1029C00080BD000080B548F21000C1F6FF70D0F85D
:1029D00024018047BFF34F8F80BD000080B548F2CF
:1029E0001000C1F6FF70D0F828018047BFF34F8F69
:1029F00080BD000080B548F21000C1F6FF70D0F82D
:102A00002C018047BFF34F8F80BD000080B548F296
:102A10001000C1F6FF70D0F830018047BFF34F8F30
:102A200080BD000080B548F21000C1F6FF70D0F8FC
:102A300034018047BFF34F8F80BD000080B548F25E
:102A40001000C1F6FF70D0F838018047BFF34F8FF8
:102A500080BD000080B548F21000C1F6FF70D0F8CC
:102A60003C018047BFF34F8F80BD000080B548F226
:102A70001000C1F6FF70D0F840018047BFF34F8FC0
:102A800080BD000080B548F21000C1F6FF70D0F89C
:102A900044018047BFF34F8F80BD000080B548F2EE
:102AA0001000C1F6FF70D0F848018047BFF34F8F88
:102AB00080BD000080B548F21000C1F6FF70D0F86C
:102AC0004C018047BFF34F8F80BD000080B548F2B6
:102AD0001000C1F6FF70D0F850018047BFF34F8F50
:102AE00080BD000080B548F21000C1F6FF70D0F83C
:102AF00054018047BFF34F8F80BD000080B548F27E
:102B00001000C1F6FF70D0F858018047BFF34F8F17
:102B100080BD000080B548F21000C1F6FF70D0F80B
:102B20005C018047BFF34F8F80BD000080B548F245
:102B30001000C1F6FF70D0F860018047BFF34F8FDF
:102B400080BD000080B548F21000C1F6FF70D0F8DB
:102B500064018047BFF34F8F80BD000080B548F20D
:102B60001000C1F6FF70D0F868018047BFF34F8FA7
:102B700080BD000080B548F21000C1F6FF70D0F8AB
:102B80006C018047BFF34F8F80BD000080B548F2D5
:102B90001000C1F6FF70D0F870018047BFF34F8F6F
:102BA00080BD000080B548F21000C1F6FF70D0F87B
:102BB00074018047BFF34F8F80BD000080B548F29D
:102BC0001000C1F6FF70D0F878018047BFF34F8F37
:102BD00080BD000080B548F21000C1F6FF70D0F84B
:102BE0007C018047BFF34F8F80BD000080B548F265
:102BF0001000C1F6FF70D0F880018047BFF34F8FFF
:102C000080BD000080B548F21000C1F6FF70D0F81A
:102C100084018047BFF34F8F80BD000080B548F22C
:102C20001000C1F6FF70D0F888018047BFF34F8FC6
:102C300080BD000080B548F21000C1F6FF70D0F8EA
:102C40008C018047BFF34F8F80BD000080B548F2F4
:102C50001000C1F6FF70D0F890018047BFF34F8F8E
:102C600080BD000080B548F21000C1F6FF70D0F8BA
:102C700094018047BFF34F8F80BD000080B548F2BC
:102C80001000C1F6FF70D0F898018047BFF34F8F56
:102C900080BD000080B548F21000C1F6FF70D0F88A
:102CA0009C018047BFF34F8F80BD000080B548F284
:102CB0001000C1F6FF70D0F8A0018047BFF34F8F1E
:102CC00080BD000080B548F21000C1F6FF70D0F85A
:102CD000A4018047BFF34F8F80BD000080B548F24C
:102CE0001000C1F6FF70D0F8A8018047BFF34F8FE6
:102CF00080BD000080B548F21000C1F6FF70D0F82A
:102D0000AC018047BFF34F8F80BD000080B548F213
:102D10001000C1F6FF70D0F8B0018047BFF34F8FAD
:102D200080BD000080B548F21000C1F6FF70D0F8F9
:102D3000B4018047BFF34F8F80BD000080B548F2DB
:102D40001000C1F6FF70D0F8B8018047BFF34F8F75
:102D500080BD000080B548F21000C1F6FF70D0F8C9
:102D6000BC018047BFF34F8F80BD000080B548F2A3
:102D70001000C1F6FF70D0F8C0018047BFF34F8F3D
:102D800080BD000080B548F21000C1F6FF70D0F899
:102D9000C4018047BFF34F8F80BD000080B548F26B
:102DA0001000C1F6FF70D0F8C8018047BFF34F8F05
:102DB00080BD000080B548F21000C1F6FF70D0F869
:102DC000CC018047BFF34F8F80BD000080B548F233
:102DD0001000C1F6FF70D0F8D0018047BFF34F8FCD
:102DE00080BD000080B548F21000C1F6FF70D0F839
:102DF000D4018047BFF34F8F80BD000080B548F2FB
:102E00001000C1F6FF70D0F8D8018047BFF34F8F94
:102E100080BD000080B548F21000C1F6FF70D0F808
:102E2000DC018047BFF34F8F80BD000080B548F2C2
:102E30001000C1F6FF70D0F8E0018047BFF34F8F5C
:102E400080BD000080B548F21000C1F6FF70D0F8D8
:102E5000E4018047BFF34F8F80BD000080B548F28A
:102E60001000C1F6FF70D0F8E8018047BFF34F8F24
:102E700080BD000080B548F21000C1F6FF70D0F8A8
:102E8000EC018047BFF34F8F80BD000080B548F252
:102E90001000C1F6FF70D0F8F0018047BFF34F8FEC
:102EA00080BD000080B548F21000C1F6FF70D0F878
:102EB000F4018047BFF34F8F80BD000080B548F21A
:102EC0001000C1F6FF70D0F8F8018047BFF34F8FB4
:102ED00080BD000080B548F21000C1F6FF70D0F848
:102EE000FC018047BFF34F8F80BD000080B582B0EA
:102EF00001909DF80400C00718B1FFE7FEF770FCD1
:102F0000FFE79DF804008007002803D5FFE700F0E5
:102F100073F8FFE79DF804004007002803D5FFE79A
:102F2000FEF766FFFFE79DF80400C006002805D500
:102F3000FFE74AF2085000F0A3F8FFE79DF804000D
:102F40004006002805D5FFE74AF2035000F098F844
:102F5000FFE79DF804000006002803D5FFE700F016
:102F6000A9F8FFE702B080BD80B582B001909DF85E
:102F70000400C00718B1FFE7FEF72AFCFFE79DF841
:102F800004008007002803D5FFE700F02BF8FFE7D7
:102F90009DF804004007002803D5FFE7FEF720FF57
:102FA000FFE79DF80400C006002805D5FFE74AF2B8
:102FB000085000F055F8FFE79DF80400400600288F
:102FC00005D5FFE74AF2035000F04AF8FFE79DF805
:102FD00004000006002803D5FFE700F05FF8FFE7D4
:102FE00002B080BD48F21001C4F204010020CAF210
:102FF000A55008607047000048F21001C4F20401B7
:103000000120CAF2A55008607047000080B5FFE7B4
:1030100044F2FE30C4F2050000888007002801D584
:10302000FFE708E044F6C420C0F2000040F2AD41E2
:10303000FEF702FBFFE7FFE744F20241C4F205019D
:10304000087800F0C0000F30087044F20F41C4F25D
:103050000501102008701E20FEF720FB002080BD17
:1030600081B0ADF80200BDF8022044F2FE31C4F296
:1030700005010888904340F42540088001B070475E
:1030800081B0ADF80200BDF8022044F2FE31C4F276
:10309000050108881043088001B0704740F604011C
:1030A000C4F205017620086040F60C01C4F2050167
:1030B0000860704740F60401C4F2050177200860FB
:1030C00040F60C01C4F205010860704780B584B079
:1030D00003900291019200208DF80300FFE703980E
:1030E00038B1FFE7039840F00F000F2801D1FFE748
:1030F00007E044F6F020C0F20000C721FEF79CFA7A
:10310000FFE7FFE7FFE70298072801D8FFE707E09E
:1031100044F6F020C0F20000C821FEF78DFAFFE768
:10312000FFE7FFE70198072801D8FFE707E044F62B
:10313000F020C0F20000C921FEF77EFAFFE7FFE7AA
:10314000FFE740F60400C4F205000068772801D1CB
:10315000FFE707E044F6F020C0F20000CA21FEF7C6
:103160006BFAFFE7FFE7FFE70398A8B3FFE79DF8D7
:103170000C00C00738B3FFE79DF80300C0008DF8CE
:1031800001009DF8010004308DF8020040F60001B6
:10319000C4F2050108689DF802C0072303FA0CF287
:1031A0009DF801E003FA0EF313439843029A02FAE2
:1031B0000CF2DDF804C00CFA0EFC42EA0C021A40D4
:1031C00010440860FFE70398400803909DF803004F
:1031D00001308DF80300C7E704B080BD80B588B02A
:1031E0000790069100208DF8170048F20000C4F205
:1031F00004000068049048F20400C4F2040000686F
:10320000039048F20800C4F204000068029048F2FB
:103210000C00C4F2040000680190FFE79DF81B0059
:10322000400750B3FFE7069800F0E060B0F1807F00
:1032300023D0FFE7069800F0E060B0F1007F1CD0DB
:10324000FFE7069800F0E060B0F1407F15D0FFE79F
:10325000069800F0E060B0F1806F0ED0FFE70698AE
:1032600000F0E060B0F1A06F07D0FFE7069800F033
:10327000E060B0F1C06F01D1FFE708E044F6E01074
:10328000C0F2000040F2A121FEF7D6F9FFE7FFE708
:10329000FFE79DF8180010F0700F24D0FFE70698A4
:1032A00000F0700010281ED0FFE7069800F07000B4
:1032B000202818D0FFE7069800F07000302812D0C0
:1032C000FFE7069800F0700040280CD0FFE7069852
:1032D00000F07000502806D0FFE7069800F070005C
:1032E000602801D1FFE708E044F6E010C0F20000DA
:1032F00040F2A221FEF7A0F9FFE7FFE7FFE79DF804
:103300001A00400750B3FFE7069800F4E020B0F53C
:10331000803F23D0FFE7069800F4E020B0F5003F9F
:103320001CD0FFE7069800F4E020B0F5403F15D030
:10333000FFE7069800F4E020B0F5802F0ED0FFE7FD
:10334000069800F4E020B0F5A02F07D0FFE706981C
:1033500000F4E020B0F5C02F01D1FFE708E044F60B
:10336000E010C0F2000040F2A321FEF765F9FFE78C
:10337000FFE7FFE79DF81A0010F0700F2AD0FFE773
:10338000069800F4E000B0F5801F23D0FFE7069810
:1033900000F4E000B0F5001F1CD0FFE7069800F431
:1033A000E000B0F5401F15D0FFE7069800F4E000FC
:1033B000B0F5800F0ED0FFE7069800F4E000B0F5FE
:1033C000A00F07D0FFE7069800F4E000B0F5C00FAB
:1033D00001D1FFE708E044F6E010C0F200004FF42E
:1033E0002971FEF729F9FFE7FFE7FFE79DF81800CD
:1033F000400720B3FFE7069800F0070001281ED021
:10340000FFE7069800F00700022818D0FFE70698AB
:1034100000F00700032812D0FFE7069800F007002D
:1034200004280CD0FFE7069800F00700052806D016
:10343000FFE7069800F00700062801D1FFE708E043
:1034400044F6E010C0F2000040F2A521FEF7F4F8C7
:10345000FFE7FFE7FFE79DF81900400750B3FFE7DC
:10346000069800F4E060B0F5807F23D0FFE706986F
:1034700000F4E060B0F5007F1CD0FFE7069800F490
:10348000E060B0F5407F15D0FFE7069800F4E060FB
:10349000B0F5806F0ED0FFE7069800F4E060B0F55D
:1034A000A06F07D0FFE7069800F4E060B0F5C06FAA
:1034B00001D1FFE708E044F6E010C0F2000040F25E
:1034C000A621FEF7B9F8FFE7FFE7FFE79DF819002F
:1034D00010F0700F2AD0FFE7069800F4E040B0F536
:1034E000805F23D0FFE7069800F4E040B0F5005F6E
:1034F0001CD0FFE7069800F4E040B0F5405F15D01F
:10350000FFE7069800F4E040B0F5804F0ED0FFE7EB
:10351000069800F4E040B0F5A04F07D0FFE706980A
:1035200000F4E040B0F5C04F01D1FFE708E044F6F9
:10353000E010C0F2000040F2A721FEF77DF8FFE79F
:10354000FFE7FFE7079847F27771C0F2777108420B
:1035500001D0FFE708E044F6E010C0F200004FF4AD
:103560002A71FEF769F8FFE7FFE7FFE744F2FE3054
:10357000C4F205000088C00708B1FFE708E044F680
:10358000E010C0F2000040F2A921FEF755F8FFE775
:10359000FFE744F22600C4F20500007800F00700BF
:1035A000052835D1FFE701208DF81700FFE748F225
:1035B0001000C4F204000068C00708B1FFE708E08B
:1035C00044F6E010C0F200004FF42C71FEF734F81E
:1035D000FFE7FFE748F20001C4F204014FF6EE20D6
:1035E000CFF6FF70086048F20401C4F204014FF006
:1035F000FF30086048F20801C4F20401086048F294
:103600000C01C4F2040108601E20FEF747F8FFE732
:1036100044F22001C4F205010868079B9843069A0A
:103620001A40104408601E20FEF738F89DF8170075
:1036300001281CD1FFE7049848F20001C4F20401FC
:103640000860039848F20401C4F20401086002987B
:1036500048F20801C4F204010860019848F20C0124
:10366000C4F2040108601E20FEF718F8FFE708B056
:1036700080BD000080B586B08DF8170000208DF861
:10368000160048F20000C4F204000068049048F2FA
:103690000400C4F204000068039048F20800C4F279
:1036A00004000068029048F20C00C4F204000068B4
:1036B0000190FFE79DF81700C8B1FFE79DF81700DC
:1036C000012814D0FFE79DF8170002280FD0FFE76C
:1036D0009DF8170003280AD0FFE79DF8170004287B
:1036E00005D0FFE79DF81700052801D1FFE708E0A6
:1036F00044F6E010C0F2000040F23721FDF79CFFD5
:10370000FFE7FFE7FFE744F2FE30C4F20500008860
:10371000C00708B1FFE708E044F6E010C0F200007F
:103720004FF40E71FDF788FFFFE7FFE744F2260034
:10373000C4F20500007800F00700052805D0FFE777
:103740009DF81700052835D1FFE701208DF81600F8
:10375000FFE748F21000C4F204000068C00708B197
:10376000FFE708E044F6E010C0F200004FF41071EB
:10377000FDF762FFFFE7FFE748F20001C4F2040132
:103780004FF6EE20CFF6FF70086048F20401C4F255
:1037900004014FF0FF30086048F20801C4F2040150
:1037A000086048F20C01C4F2040108601E20FDF715
:1037B00075FFFFE79DF8170044F22601C4F20501EA
:1037C00008701E20FDF76AFF9DF8160001281CD125
:1037D000FFE7049848F20001C4F20401086003986E
:1037E00048F20401C4F204010860029848F208019A
:1037F000C4F204010860019848F20C01C4F204010B
:1038000008601E20FDF74AFFFFE706B080BD0000FC
:1038100080B59AB01990189140F27410C0F200204F
:103820000B90BA20C0F200100A905D20C0F2800018
:1038300009902020C0F2400008904FF0FF30079020
:10384000FFE719984DF20001C4F20101884218D037
:10385000FFE719984DF20041C4F20101884210D0EF
:10386000FFE7199841F20001C4F20201884208D032
:10387000FFE7199841F20041C4F20201884201D1E8
:10388000FFE708E044F61D30C0F2000040F2F311FB
:10389000FDF7D2FEFFE7FFE718980068169018982A
:1038A000406817901698002800F01681FFE71798D7
:1038B000002800F01181FFE71998406900F46000CA
:1038C0001590FFE71598A0B1FFE71598B0F5001F18
:1038D0000FD0FFE71598B0F5C00F0AD0FFE7159895
:1038E000B0F5200F05D0FFE71598B0F5400F01D1D6
:1038F000FFE708E044F61D30C0F2000040F2F91185
:10390000FDF79AFEFFE7FFE71598410D08A830F88C
:103910001100159016981799159A51434900B0FB5C
:10392000F1F001380F900F98FF287CD8FFE70F982F
:1039300018998860169A1798159948434100B2FB68
:10394000F1F000FB11200E900E9828B9FFE71899AE
:1039500000200861079065E015980F990131A0FBE0
:10396000011C4FF0000343F1000200FB02C0179A54
:10397000A1FB021C00FB02C0400040EAD1704900DC
:1039800012911390DDF848E01398000240EA1E619E
:10399000169A5FEA530C4FEA320010EB0E2041EB0F
:1039A0000C01FCF7A9FC80380D900D987F2838D8C1
:1039B000FFE70D981899C86012991398000240EA21
:1039C000116009021291139016980D9980314FF0F1
:1039D0000002069242F10002A0FB011300FB02303C
:1039E0001091119010981199FCF7D6FC0490059154
:1039F00012981399FCF7D0FC024604980B460599DF
:103A0000FCF766FDFCF7D4FC0021CBF68071FCF7D7
:103A100007FD014606980C910C99189A11610790C0
:103A2000FFE7FFE7FFE707980130002853D1FFE7E2
:103A3000169800EB800040001799159A51434900F1
:103A4000B0FBF1F005304CF6CD41CCF6CC41A0FBFB
:103A500001014FF0FF3000EBD1000F900F98FF28CD
:103A600038D8FFE70F981899886015980F99013199
:103A7000A0FB01134FF00002039242F1000200FB91
:103A80000230179AA1FB021300FB0230400040EA0B
:103A9000D1704900129113901698FCF770FC0190B8
:103AA000029112981399FCF777FC024601980B4695
:103AB0000299FCF70DFDFCF77BFC0021CBF6807131
:103AC000FCF7AEFC014603980C910C99189A116111
:103AD0000790FFE7FFE7FFE707981AB080BD0000F7
:103AE00086B040F28460C4F201000068C00750B1A3
:103AF000FFE748F20001C1F6FF7142F20040C0F258
:103B0000F400086009E048F20001C1F6FF7142F6D6
:103B10000050C0F231100860FFE744F22600C4F202
:103B20000500007800F007008DF817009DF81700D9
:103B300001460091052867D80099DFE801F0030EDF
:103B400018202A3248F20000C1F6FF70006848F2DF
:103B50000401C1F6FF71086057E048F20401C1F6A4
:103B6000FF7141F20020C0F27A0008604DE048F297
:103B70000401C1F6FF714FF40040086045E048F2CF
:103B80000401C1F6FF7141F20020C0F27A00086022
:103B90003BE048F20401C1F6FF714FF400400860B9
:103BA00033E044F20010C4F205000168C1F30821BB
:103BB00004910168090F0391016801F01F0102914E
:103BC00000680006002806D4FFE741F20020C0F29A
:103BD0007A00019006E048F20000C1F6FF7000682C
:103BE0000190FFE7019802990131B0FBF1F00499CF
:103BF0000131484303990131B0FBF1F048F204016F
:103C0000C1F6FF71086000E0FFE706B070470000F2
:103C100080B5FFF765FF4EF60851CEF20001002097
:103C2000086080BD10B598B01790169101200790DC
:103C30004FF0FF300690FFE717984DF20001C4F2F5
:103C40000101884218D0FFE717984DF20041C4F2F5
:103C50000101884210D0FFE7179841F20001C4F239
:103C60000201884208D0FFE7179841F20041C4F2F0
:103C70000201884201D1FFE708E044F61D30C0F29E
:103C800000004FF4A771FDF7D7FCFFE7FFE7169898
:103C9000006814901698406815901498002800F059
:103CA0001281FFE71598002800F00D81FFE71798B3
:103CB000C06880B2C00B139014981599139AC2F182
:103CC00002025143C900B0FBF1F001380B900B9890
:103CD000FF2800F29780FFE70B9816998860149AE6
:103CE00015981399C1F102014843C100B2FBF1F0EC
:103CF00000FB11200A900A9828B9FFE716990020C6
:103D0000086106907DE01398D0F1020C4FF000029C
:103D100062F100000B994B1CACFB031442F1000E46
:103D20000CFB0E4C00FB03C0159BA1FB031C00FB0E
:103D300003C0C00040EA5170C9000E910F900E9967
:103D40000F98000240EA116009020E910F900E993F
:103D50000F98149B5FEA52024FEA3303C91850418F
:103D600010911190119848B1FFE710981199149A89
:103D70000023FCF7C1FA8038099006E010981499E6
:103D8000B0FBF1F080380990FFE709987F2834D81C
:103D9000FFE709981699C8600E980F991191109035
:103DA0001498099980314FF00002059242F1000207
:103DB000A0FB011300FB02300C910D900C980D99A3
:103DC000FCF7EAFA0390049110981199FCF7E4FAD1
:103DD000024603980B460499FCF77AFBFCF7E8FAD5
:103DE0000021CBF68071FCF71BFB0146059808917A
:103DF0000899169A1161069002E000200790FFE7EB
:103E0000FFE7FFE7079800285CD1FFE7149800EB75
:103E1000800040001599139AC2F102025143C90073
:103E2000B0FBF1F005304CF6CD41CCF6CC41A0FB17
:103E300001014FF0FF3000EBD1000B900B98FF28F1
:103E40003FD8FFE70B98169988601398D0F10203CA
:103E50004FF0000CCDF808C06CF100000B994A1C23
:103E6000A3FB021E4CF1000C03FB0CE300FB023031
:103E7000159AA1FB021300FB0230C00040EA51700A
:103E8000C900109111901498FCF779FA00900191F3
:103E900010981199FCF780FA024600980B46019998
:103EA000FCF716FBFCF784FA0021CBF68071FCF7D7
:103EB000B7FA0146029808910899169A116106907E
:103EC000FFE7FFE7FFE7069818B010BD80B582B0A6
:103ED00001900091FFE701984DF20001C4F2010149
:103EE000884218D0FFE701984DF20041C4F2010169
:103EF000884210D0FFE7019841F20001C4F20201AC
:103F0000884208D0FFE7019841F20041C4F2020163
:103F1000884201D1FFE708E044F61D30C0F20000FE
:103F20004FF48061FDF788FBFFE7FFE7FFE70098AC
:103F300050B1FFE7009840F2EB11C0F201010843D5
:103F4000884201D1FFE708E044F61D30C0F20000CE
:103F500040F20141FDF770FBFFE7FFE79DF800002D
:103F600010F00B0F09D0FFE7009800F00B02019949
:103F7000C86840EA0240C860FFE79DF80100C0073A
:103F800030B1FFE70199C86840F48010C860FFE7CE
:103F900002B080BD80B584B0039002918DF80720F7
:103FA000FFE703984DF20001C4F20101884218D0E6
:103FB000FFE703984DF20041C4F20101884210D09E
:103FC000FFE7039841F20001C4F20201884208D0E1
:103FD000FFE7039841F20041C4F20201884201D197
:103FE000FFE708E044F61D30C0F2000040F2BB31AC
:103FF000FDF722FBFFE7FFE7FFE79DF8070028B189
:10400000FFE79DF80700012801D1FFE708E044F62B
:104010001D30C0F200004FF46F71FDF70DFBFFE79C
:10402000FFE7FFE7029838B1FFE7029840F0EF00A2
:10403000EF2801D1FFE708E044F61D30C0F2000090
:1040400040F2BD31FDF7F8FAFFE7FFE7BDF80800E1
:104050000090009890B1FFE79DF80700012806D175
:10406000FFE7009A0399C8681043C86005E0009A0A
:104070000399C8689043C860FFE7FFE704B080BDBC
:1040800082B0019048F20400C1F6FF70006844F26B
:104090002001C4F205010968C1F30211C840009073
:1040A000009802B07047000080B584B00390FFE72D
:1040B00003984DF20001C4F20101884218D0FFE7D5
:1040C00003984DF20041C4F20101884210D0FFE78D
:1040D000039841F20001C4F20201884208D0FFE7D0
:1040E000039841F20041C4F20201884201D1FFE786
:1040F00008E044F61D30C0F2000040F24921FDF70F
:104100009BFAFFE7FFE70398FFF7BAFF02900398D7
:10411000806900F00300410001208840019002986E
:104120000199B0FBF1F00090009804B080BD000050
:1041300080B582B00190FFE701984DF20001C4F212
:104140000101884218D0FFE701984DF20041C4F206
:104150000101884210D0FFE7019841F20001C4F24A
:104160000201884208D0FFE7019841F20041C4F201
:104170000201884201D1FFE708E044F61D30C0F299
:10418000000040F27251FDF757FAFFE7FFE7019890
:10419000C08802B080BD000080B582B04DF2000042
:1041A000C4F201000190FFF7C3FF01980B21FFF754
:1041B0008DFE02B080BD000080B582B04DF20000DF
:1041C000C4F20100FFF7B4FF8DF8070048F2045075
:1041D000C1F6FF70FCF7AAFB50B9FFE748F20450A4
:1041E000C1F6FF700DF107010122FCF73FFCFFE76C
:1041F00002B080BD80B582B0019000910199009A13
:1042000048F21850C1F6FF70FCF730FC48F2080085
:10421000C1F6FF70007801280FD1FFE748F20801CE
:10422000C1F6FF71002008704DF20000C4F20100D9
:1042300088210122FFF7AEFEFFE702B080BD00003B
:1042400080B58AB0099008910792FFE7089808B1F5
:10425000FFE708E044F61D30C0F2000040F2A9512B
:10426000FDF7EAF9FFE7FFE7FFE709984DF20001E4
:10427000C4F20101884218D0FFE709984DF20041CD
:10428000C4F20101884210D0FFE7099841F2000111
:10429000C4F20201884208D0FFE7099841F20041C8
:1042A000C4F20201884201D1FFE708E044F61D3064
:1042B000C0F2000040F2AA51FDF7BEF9FFE7FFE7A8
:1042C000FFE70998C06810F00C0F01D1FFE708E084
:1042D00044F61D30C0F2000040F2AB51FDF7ACF9DE
:1042E000FFE7FFE70998FFF7DFFE019008980290CB
:1042F00000200590FF2004900998C06800F08070AD
:104300000690069898B9FFE709984069800600284A
:1043100006D4FFE7099801A9FFF784FC009005E0A7
:10432000099801A9FFF774FA0090FFE705E00998E2
:1043300001A9FDF765F80090FFE70098C0B9FFE715
:10434000099880684FF67F729043039B049941EA75
:10435000032111400844099988600498FF2806D079
:10436000FFE70999C86840F00050C860FFE700E027
:10437000FFE7079820B1FFE7059807990860FFE776
:1043800000980AB080BD000080B548F20801C1F66F
:10439000FF71012008704DF20000C4F20100C82135
:1043A0000022FFF7F7FD80BD80B582B048F21850BB
:1043B000C1F6FF70FCF718F890B9FFE748F2185003
:1043C000C1F6FF700DF107010122FCF7DDFA9DF83F
:1043D00007104DF20000C4F2010000F08FF908E070
:1043E0004DF20000C4F2010040210122FFF7D2FD8E
:1043F000FFE702B080BD000080B588B0079006914D
:1044000005926FF0020001900698002800F04681A6
:10441000FFE7FFE707984DF20001C4F2010188426F
:1044200018D0FFE707984DF20041C4F2010188421D
:1044300010D0FFE7079841F20001C4F20201884260
:1044400008D0FFE7079841F20041C4F20201884218
:1044500001D1FFE708E044F61D30C0F2000040F251
:104460002D31FDF7E9F8FFE7FFE7FFE70698006861
:10447000B0F5805F04D0FFE70698006808B9FFE751
:1044800008E044F61D30C0F2000040F22E31FDF786
:10449000D3F8FFE7FFE7FFE706988068B0F5006F05
:1044A00004D0FFE70698806808B9FFE708E044F603
:1044B0001D30C0F2000040F22F31FDF7BDF8FFE7DC
:1044C000FFE7FFE706988069B0F5C06F0AD0FFE705
:1044D00006988069B0F5806F04D0FFE70698806980
:1044E00008B9FFE708E044F61D30C0F200004FF4C1
:1044F0004C71FDF7A1F8FFE7FFE7FFE706980069B9
:1045000030B1FFE706980069B0F5805F01D1FFE7A1
:1045100008E044F61D30C0F2000040F23131FDF7F2
:104520008BF8FFE7FFE7FFE70698406930B1FFE748
:1045300006984069B0F5005F01D1FFE708E044F656
:104540001D30C0F2000040F23231FDF775F8FFE790
:10455000FFE7FFE70698C069B0F5004F04D0FFE71A
:104560000698C06908B9FFE708E044F61D30C0F2BC
:10457000000040F23331FDF75FF8FFE7FFE7FFE7A8
:104580000698006AB0F1805F04D0FFE70698006AE1
:1045900008B9FFE708E044F61D30C0F200004FF410
:1045A0004D71FDF749F8FFE7FFE7FFE70698406A1E
:1045B00030B1FFE70698406AB0F1004F01D1FFE744
:1045C00008E044F61D30C0F2000040F23531FDF73E
:1045D00033F8FFE7FFE7FFE70698806AB0F5007F52
:1045E00006D0FFE70698806AB0F5807F01D1FFE72B
:1045F00008E044F61D30C0F2000040F23631FDF70D
:104600001BF8FFE7FFE70699D1F810C08869CA696F
:104610000B6A40EA0C0018431043496A08430490AF
:10462000069908688A684969104308430390069808
:10463000806AA0F50070B0FA80F040094002029054
:1046400004980799C8600398079908610298079928
:10465000486106980068E8B9FFE7FFE706984068F8
:10466000032801D8FFE708E044F61D30C0F200003F
:104670004FF45171FCF7E0FFFFE7FFE70698406851
:104680000799886107980699C968059AFFF7D8FDC8
:10469000019002E000200190FFE7FFE7019808B0D9
:1046A00080BD000083B002906FF00200019002987C
:1046B00000B3FFE70299002000900860029948606B
:1046C00002998860029A4FF41651D16002990861EC
:1046D00002994861029988610299C8610299086249
:1046E000029A4FF000415162029A4FF48071916238
:1046F0000190FFE7019803B07047000080B582B0D9
:104700000190ADF80210FFE701984DF20001C4F2EC
:104710000101884218D0FFE701984DF20041C4F230
:104720000101884210D0FFE7019841F20001C4F274
:104730000201884208D0FFE7019841F20041C4F22B
:104740000201884201D1FFE708E044F61D30C0F2C3
:10475000000040F28151FCF76FFFFFE7FFE7FFE742
:10476000BDF802100020B0EB512F01D1FFE708E0A7
:1047700044F61D30C0F2000040F28251FCF75CFFAD
:10478000FFE7FFE7BDF802000199888002B080BD15
:1047900081B0ADF80200BDF9020000280ED4FFE799
:1047A000BDF9021001F01F02012090404A094EF2AB
:1047B0008021CEF2000141F82200FFE701B07047EE
:1047C00081B0ADF80200BDF9020000280ED4FFE769
:1047D000BDF9021001F01F02012090404A094EF27B
:1047E0000011CEF2000141F82200FFE701B070474E
:1047F00082B0ADF806000091BDF9060000280AD489
:10480000FFE700980001BDF906104EF20042CEF21B
:10481000000288540BE000980001BDF8061001F07A
:104820000F014EF61452CEF200028854FFE702B098
:104830007047000080B59AB0002006901990C720FC
:10484000FEF754FBFBF77EFFFCF716F80DF11E0098
:104850000390FDF773FC039A0220ADF820000120BD
:104860000490ADF81E008021FDF732F904990698F6
:104870002122FDF719FB069804212022FDF714FBE5
:1048800004994FF08070FDF73FF848F21850C1F6D8
:10489000FF7048F21031C1F6FF714FF4FA72FCF765
:1048A0004FF848F20450C1F6FF7048F21021C1F6EB
:1048B000FF714FF48072FCF743F80EA80590FFF7E4
:1048C000F1FE0599069A03200F904FF4E130119004
:1048D0004FF4004015904DF20000C4F20100FFF7C4
:1048E0008BFD28B1FFE70120FBF7EEFFFFE7FEE7B6
:1048F0000020ADF832004FF48B70ADF8300044F278
:104900009910C0F200000D900CA800900F210191A9
:10491000FDF78CFC0098019901220292ADF832203B
:1049200040F21712ADF8302044F2B912C0F2000282
:104930000D92FDF77BFC009801990222ADF8322020
:104940004FF48C72ADF8302044F2A932C0F200026C
:104950000D92FDF76BFC009801990322ADF832200F
:1049600040F21912ADF8302044F28932C0F2000250
:104970000D92FDF75BFCC720FEF7F6FA029A4DF2A6
:104980000000C4F201002421FFF704FBFFE701202F
:104990008021FDF7F7FB44F6DA10C0F20000052194
:1049A000FFF728FC4FF47A70FCF74CFEEFE702E0CB
:1049B00008C8121F08C1002AFAD17047002001E080
:1049C00001C1121F002AFBD1704703000800030039
:1049D000100003002000030040004141410D0A0087
:1049E0002E2E2F647269766572732F686333325F7F
:1049F0006C6C5F6472697665722F7372632F686383
:104A000033325F6C6C5F636C6B2E63002E2E2F64F1
:104A10007269766572732F686333325F6C6C5F64A2
:104A200072697665722F7372632F686333325F6CBD
:104A30006C5F65666D2E63002E2E2F64726976653D
:104A400072732F686333325F6C6C5F647269766572
:104A5000722F7372632F686333325F6C6C5F6663AF
:104A6000672E63002E2E2F647269766572732F682D
:104A70006333325F6C6C5F6472697665722F737238
:104A8000632F686333325F6C6C5F6770696F2E638E
:104A9000002E2E2F647269766572732F686333322D
:104AA0005F6C6C5F6472697665722F7372632F68D6
:104AB0006333325F6C6C5F696E74657272757074AB
:104AC000732E63002E2E2F647269766572732F68C1
:104AD0006333325F6C6C5F6472697665722F7372D8
:104AE000632F686333325F6C6C5F7077632E630093
:104AF0002E2E2F647269766572732F686333325F6E
:104B00006C6C5F6472697665722F7372632F686371
:104B100033325F6C6C5F7372616D2E63002E2E2FCB
:104B2000647269766572732F686333325F6C6C5F91
:104B30006472697665722F7372632F686333325FB4
:104B40006C6C5F75736172742E630000704B0000B3
:104B50000880FF1F08000000AE490000784B0000ED
:104B60001080FF1F20250000BC490000000000004D
:084B700001000000000000003C
:040000050000028174
:00000001FF
